{
  "contractName": "Assessments",
  "abi": [
    {
      "anonymous": false,
      "inputs": [
        {
          "indexed": false,
          "internalType": "uint256",
          "name": "id",
          "type": "uint256"
        },
        {
          "indexed": false,
          "internalType": "string",
          "name": "assessType",
          "type": "string"
        },
        {
          "indexed": false,
          "internalType": "string",
          "name": "date",
          "type": "string"
        },
        {
          "indexed": false,
          "internalType": "address",
          "name": "account",
          "type": "address"
        },
        {
          "indexed": false,
          "internalType": "string",
          "name": "document",
          "type": "string"
        },
        {
          "indexed": false,
          "internalType": "string",
          "name": "month",
          "type": "string"
        },
        {
          "indexed": false,
          "internalType": "string",
          "name": "year",
          "type": "string"
        }
      ],
      "name": "EnviroAdded",
      "type": "event"
    },
    {
      "anonymous": false,
      "inputs": [
        {
          "indexed": false,
          "internalType": "uint256",
          "name": "id",
          "type": "uint256"
        },
        {
          "indexed": false,
          "internalType": "string",
          "name": "assessType",
          "type": "string"
        },
        {
          "indexed": false,
          "internalType": "string",
          "name": "date",
          "type": "string"
        },
        {
          "indexed": false,
          "internalType": "address",
          "name": "account",
          "type": "address"
        },
        {
          "indexed": false,
          "internalType": "string",
          "name": "document",
          "type": "string"
        },
        {
          "indexed": false,
          "internalType": "string",
          "name": "month",
          "type": "string"
        },
        {
          "indexed": false,
          "internalType": "string",
          "name": "year",
          "type": "string"
        },
        {
          "indexed": false,
          "internalType": "string",
          "name": "process",
          "type": "string"
        }
      ],
      "name": "LCAAdded",
      "type": "event"
    },
    {
      "anonymous": false,
      "inputs": [
        {
          "indexed": false,
          "internalType": "uint256",
          "name": "id",
          "type": "uint256"
        },
        {
          "indexed": false,
          "internalType": "string",
          "name": "assessType",
          "type": "string"
        },
        {
          "indexed": false,
          "internalType": "string",
          "name": "date",
          "type": "string"
        },
        {
          "indexed": false,
          "internalType": "address",
          "name": "account",
          "type": "address"
        },
        {
          "indexed": false,
          "internalType": "string",
          "name": "document",
          "type": "string"
        },
        {
          "indexed": false,
          "internalType": "string",
          "name": "month",
          "type": "string"
        },
        {
          "indexed": false,
          "internalType": "string",
          "name": "year",
          "type": "string"
        }
      ],
      "name": "SocialAdded",
      "type": "event"
    },
    {
      "constant": true,
      "inputs": [],
      "name": "LCACount",
      "outputs": [
        {
          "internalType": "uint256",
          "name": "",
          "type": "uint256"
        }
      ],
      "payable": false,
      "stateMutability": "view",
      "type": "function"
    },
    {
      "constant": true,
      "inputs": [
        {
          "internalType": "uint256",
          "name": "",
          "type": "uint256"
        }
      ],
      "name": "LCAs",
      "outputs": [
        {
          "internalType": "uint256",
          "name": "id",
          "type": "uint256"
        },
        {
          "internalType": "string",
          "name": "assessType",
          "type": "string"
        },
        {
          "internalType": "string",
          "name": "date",
          "type": "string"
        },
        {
          "internalType": "address",
          "name": "account",
          "type": "address"
        },
        {
          "internalType": "string",
          "name": "document",
          "type": "string"
        },
        {
          "internalType": "string",
          "name": "month",
          "type": "string"
        },
        {
          "internalType": "string",
          "name": "year",
          "type": "string"
        },
        {
          "internalType": "string",
          "name": "process",
          "type": "string"
        }
      ],
      "payable": false,
      "stateMutability": "view",
      "type": "function"
    },
    {
      "constant": true,
      "inputs": [],
      "name": "assessmentCount",
      "outputs": [
        {
          "internalType": "uint256",
          "name": "",
          "type": "uint256"
        }
      ],
      "payable": false,
      "stateMutability": "view",
      "type": "function"
    },
    {
      "constant": true,
      "inputs": [],
      "name": "enviroCount",
      "outputs": [
        {
          "internalType": "uint256",
          "name": "",
          "type": "uint256"
        }
      ],
      "payable": false,
      "stateMutability": "view",
      "type": "function"
    },
    {
      "constant": true,
      "inputs": [
        {
          "internalType": "uint256",
          "name": "",
          "type": "uint256"
        }
      ],
      "name": "enviros",
      "outputs": [
        {
          "internalType": "uint256",
          "name": "id",
          "type": "uint256"
        },
        {
          "internalType": "string",
          "name": "assessType",
          "type": "string"
        },
        {
          "internalType": "string",
          "name": "date",
          "type": "string"
        },
        {
          "internalType": "address",
          "name": "account",
          "type": "address"
        },
        {
          "internalType": "string",
          "name": "document",
          "type": "string"
        },
        {
          "internalType": "string",
          "name": "month",
          "type": "string"
        },
        {
          "internalType": "string",
          "name": "year",
          "type": "string"
        }
      ],
      "payable": false,
      "stateMutability": "view",
      "type": "function"
    },
    {
      "constant": true,
      "inputs": [],
      "name": "socialCount",
      "outputs": [
        {
          "internalType": "uint256",
          "name": "",
          "type": "uint256"
        }
      ],
      "payable": false,
      "stateMutability": "view",
      "type": "function"
    },
    {
      "constant": true,
      "inputs": [
        {
          "internalType": "uint256",
          "name": "",
          "type": "uint256"
        }
      ],
      "name": "socials",
      "outputs": [
        {
          "internalType": "uint256",
          "name": "id",
          "type": "uint256"
        },
        {
          "internalType": "string",
          "name": "assessType",
          "type": "string"
        },
        {
          "internalType": "string",
          "name": "date",
          "type": "string"
        },
        {
          "internalType": "address",
          "name": "account",
          "type": "address"
        },
        {
          "internalType": "string",
          "name": "document",
          "type": "string"
        },
        {
          "internalType": "string",
          "name": "month",
          "type": "string"
        },
        {
          "internalType": "string",
          "name": "year",
          "type": "string"
        }
      ],
      "payable": false,
      "stateMutability": "view",
      "type": "function"
    },
    {
      "constant": false,
      "inputs": [
        {
          "internalType": "string",
          "name": "_date",
          "type": "string"
        },
        {
          "internalType": "string",
          "name": "_document",
          "type": "string"
        },
        {
          "internalType": "string",
          "name": "_month",
          "type": "string"
        },
        {
          "internalType": "string",
          "name": "_year",
          "type": "string"
        },
        {
          "internalType": "string",
          "name": "_process",
          "type": "string"
        }
      ],
      "name": "addLCA",
      "outputs": [],
      "payable": false,
      "stateMutability": "nonpayable",
      "type": "function"
    },
    {
      "constant": false,
      "inputs": [
        {
          "internalType": "string",
          "name": "_date",
          "type": "string"
        },
        {
          "internalType": "string",
          "name": "_document",
          "type": "string"
        },
        {
          "internalType": "string",
          "name": "_month",
          "type": "string"
        },
        {
          "internalType": "string",
          "name": "_year",
          "type": "string"
        }
      ],
      "name": "addEnviro",
      "outputs": [],
      "payable": false,
      "stateMutability": "nonpayable",
      "type": "function"
    },
    {
      "constant": false,
      "inputs": [
        {
          "internalType": "string",
          "name": "_date",
          "type": "string"
        },
        {
          "internalType": "string",
          "name": "_document",
          "type": "string"
        },
        {
          "internalType": "string",
          "name": "_month",
          "type": "string"
        },
        {
          "internalType": "string",
          "name": "_year",
          "type": "string"
        }
      ],
      "name": "addSocial",
      "outputs": [],
      "payable": false,
      "stateMutability": "nonpayable",
      "type": "function"
    }
  ],
  "bytecode": "0x60806040526000805560006001556000600255600060035534801561002357600080fd5b50612a1e806100336000396000f3fe608060405234801561001057600080fd5b506004361061009e5760003560e01c8063c91e101311610066578063c91e10131461067a578063ccd6db511461090b578063d1dc7e0014610b8b578063d6bbb64314610e1c578063db09ef88146111335761009e565b806323072b29146100a3578063458789e9146103a05780634768475a146103be578063817215e11461063e57806398ad394d1461065c575b600080fd5b6100cf600480360360208110156100b957600080fd5b8101908080359060200190929190505050611151565b6040518089815260200180602001806020018873ffffffffffffffffffffffffffffffffffffffff1673ffffffffffffffffffffffffffffffffffffffff1681526020018060200180602001806020018060200187810387528e818151815260200191508051906020019080838360005b8381101561015b578082015181840152602081019050610140565b50505050905090810190601f1680156101885780820380516001836020036101000a031916815260200191505b5087810386528d818151815260200191508051906020019080838360005b838110156101c15780820151818401526020810190506101a6565b50505050905090810190601f1680156101ee5780820380516001836020036101000a031916815260200191505b5087810385528b818151815260200191508051906020019080838360005b8381101561022757808201518184015260208101905061020c565b50505050905090810190601f1680156102545780820380516001836020036101000a031916815260200191505b5087810384528a818151815260200191508051906020019080838360005b8381101561028d578082015181840152602081019050610272565b50505050905090810190601f1680156102ba5780820380516001836020036101000a031916815260200191505b50878103835289818151815260200191508051906020019080838360005b838110156102f35780820151818401526020810190506102d8565b50505050905090810190601f1680156103205780820380516001836020036101000a031916815260200191505b50878103825288818151815260200191508051906020019080838360005b8381101561035957808201518184015260208101905061033e565b50505050905090810190601f1680156103865780820380516001836020036101000a031916815260200191505b509e50505050505050505050505050505060405180910390f35b6103a8611549565b6040518082815260200191505060405180910390f35b61063c600480360360808110156103d457600080fd5b81019080803590602001906401000000008111156103f157600080fd5b82018360208201111561040357600080fd5b8035906020019184600183028401116401000000008311171561042557600080fd5b91908080601f016020809104026020016040519081016040528093929190818152602001838380828437600081840152601f19601f8201169050808301925050505050505091929192908035906020019064010000000081111561048857600080fd5b82018360208201111561049a57600080fd5b803590602001918460018302840111640100000000831117156104bc57600080fd5b91908080601f016020809104026020016040519081016040528093929190818152602001838380828437600081840152601f19601f8201169050808301925050505050505091929192908035906020019064010000000081111561051f57600080fd5b82018360208201111561053157600080fd5b8035906020019184600183028401116401000000008311171561055357600080fd5b91908080601f016020809104026020016040519081016040528093929190818152602001838380828437600081840152601f19601f820116905080830192505050505050509192919290803590602001906401000000008111156105b657600080fd5b8201836020820111156105c857600080fd5b803590602001918460018302840111640100000000831117156105ea57600080fd5b91908080601f016020809104026020016040519081016040528093929190818152602001838380828437600081840152601f19601f82011690508083019250505050505050919291929050505061154f565b005b610646611989565b6040518082815260200191505060405180910390f35b61066461198f565b6040518082815260200191505060405180910390f35b6106a66004803603602081101561069057600080fd5b8101908080359060200190929190505050611995565b6040518088815260200180602001806020018773ffffffffffffffffffffffffffffffffffffffff1673ffffffffffffffffffffffffffffffffffffffff16815260200180602001806020018060200186810386528c818151815260200191508051906020019080838360005b8381101561072e578082015181840152602081019050610713565b50505050905090810190601f16801561075b5780820380516001836020036101000a031916815260200191505b5086810385528b818151815260200191508051906020019080838360005b83811015610794578082015181840152602081019050610779565b50505050905090810190601f1680156107c15780820380516001836020036101000a031916815260200191505b50868103845289818151815260200191508051906020019080838360005b838110156107fa5780820151818401526020810190506107df565b50505050905090810190601f1680156108275780820380516001836020036101000a031916815260200191505b50868103835288818151815260200191508051906020019080838360005b83811015610860578082015181840152602081019050610845565b50505050905090810190601f16801561088d5780820380516001836020036101000a031916815260200191505b50868103825287818151815260200191508051906020019080838360005b838110156108c65780820151818401526020810190506108ab565b50505050905090810190601f1680156108f35780820380516001836020036101000a031916815260200191505b509c5050505050505050505050505060405180910390f35b610b896004803603608081101561092157600080fd5b810190808035906020019064010000000081111561093e57600080fd5b82018360208201111561095057600080fd5b8035906020019184600183028401116401000000008311171561097257600080fd5b91908080601f016020809104026020016040519081016040528093929190818152602001838380828437600081840152601f19601f820116905080830192505050505050509192919290803590602001906401000000008111156109d557600080fd5b8201836020820111156109e757600080fd5b80359060200191846001830284011164010000000083111715610a0957600080fd5b91908080601f016020809104026020016040519081016040528093929190818152602001838380828437600081840152601f19601f82011690508083019250505050505050919291929080359060200190640100000000811115610a6c57600080fd5b820183602082011115610a7e57600080fd5b80359060200191846001830284011164010000000083111715610aa057600080fd5b91908080601f016020809104026020016040519081016040528093929190818152602001838380828437600081840152601f19601f82011690508083019250505050505050919291929080359060200190640100000000811115610b0357600080fd5b820183602082011115610b1557600080fd5b80359060200191846001830284011164010000000083111715610b3757600080fd5b91908080601f016020809104026020016040519081016040528093929190818152602001838380828437600081840152601f19601f820116905080830192505050505050509192919290505050611cef565b005b610bb760048036036020811015610ba157600080fd5b8101908080359060200190929190505050612129565b6040518088815260200180602001806020018773ffffffffffffffffffffffffffffffffffffffff1673ffffffffffffffffffffffffffffffffffffffff16815260200180602001806020018060200186810386528c818151815260200191508051906020019080838360005b83811015610c3f578082015181840152602081019050610c24565b50505050905090810190601f168015610c6c5780820380516001836020036101000a031916815260200191505b5086810385528b818151815260200191508051906020019080838360005b83811015610ca5578082015181840152602081019050610c8a565b50505050905090810190601f168015610cd25780820380516001836020036101000a031916815260200191505b50868103845289818151815260200191508051906020019080838360005b83811015610d0b578082015181840152602081019050610cf0565b50505050905090810190601f168015610d385780820380516001836020036101000a031916815260200191505b50868103835288818151815260200191508051906020019080838360005b83811015610d71578082015181840152602081019050610d56565b50505050905090810190601f168015610d9e5780820380516001836020036101000a031916815260200191505b50868103825287818151815260200191508051906020019080838360005b83811015610dd7578082015181840152602081019050610dbc565b50505050905090810190601f168015610e045780820380516001836020036101000a031916815260200191505b509c5050505050505050505050505060405180910390f35b611131600480360360a0811015610e3257600080fd5b8101908080359060200190640100000000811115610e4f57600080fd5b820183602082011115610e6157600080fd5b80359060200191846001830284011164010000000083111715610e8357600080fd5b91908080601f016020809104026020016040519081016040528093929190818152602001838380828437600081840152601f19601f82011690508083019250505050505050919291929080359060200190640100000000811115610ee657600080fd5b820183602082011115610ef857600080fd5b80359060200191846001830284011164010000000083111715610f1a57600080fd5b91908080601f016020809104026020016040519081016040528093929190818152602001838380828437600081840152601f19601f82011690508083019250505050505050919291929080359060200190640100000000811115610f7d57600080fd5b820183602082011115610f8f57600080fd5b80359060200191846001830284011164010000000083111715610fb157600080fd5b91908080601f016020809104026020016040519081016040528093929190818152602001838380828437600081840152601f19601f8201169050808301925050505050505091929192908035906020019064010000000081111561101457600080fd5b82018360208201111561102657600080fd5b8035906020019184600183028401116401000000008311171561104857600080fd5b91908080601f016020809104026020016040519081016040528093929190818152602001838380828437600081840152601f19601f820116905080830192505050505050509192919290803590602001906401000000008111156110ab57600080fd5b8201836020820111156110bd57600080fd5b803590602001918460018302840111640100000000831117156110df57600080fd5b91908080601f016020809104026020016040519081016040528093929190818152602001838380828437600081840152601f19601f820116905080830192505050505050509192919290505050612483565b005b61113b61293e565b6040518082815260200191505060405180910390f35b6004602052806000526040600020600091509050806000015490806001018054600181600116156101000203166002900480601f0160208091040260200160405190810160405280929190818152602001828054600181600116156101000203166002900480156112035780601f106111d857610100808354040283529160200191611203565b820191906000526020600020905b8154815290600101906020018083116111e657829003601f168201915b505050505090806002018054600181600116156101000203166002900480601f0160208091040260200160405190810160405280929190818152602001828054600181600116156101000203166002900480156112a15780601f10611276576101008083540402835291602001916112a1565b820191906000526020600020905b81548152906001019060200180831161128457829003601f168201915b5050505050908060030160009054906101000a900473ffffffffffffffffffffffffffffffffffffffff1690806004018054600181600116156101000203166002900480601f0160208091040260200160405190810160405280929190818152602001828054600181600116156101000203166002900480156113655780601f1061133a57610100808354040283529160200191611365565b820191906000526020600020905b81548152906001019060200180831161134857829003601f168201915b505050505090806005018054600181600116156101000203166002900480601f0160208091040260200160405190810160405280929190818152602001828054600181600116156101000203166002900480156114035780601f106113d857610100808354040283529160200191611403565b820191906000526020600020905b8154815290600101906020018083116113e657829003601f168201915b505050505090806006018054600181600116156101000203166002900480601f0160208091040260200160405190810160405280929190818152602001828054600181600116156101000203166002900480156114a15780601f10611476576101008083540402835291602001916114a1565b820191906000526020600020905b81548152906001019060200180831161148457829003601f168201915b505050505090806007018054600181600116156101000203166002900480601f01602080910402602001604051908101604052809291908181526020018280546001816001161561010002031660029004801561153f5780601f106115145761010080835404028352916020019161153f565b820191906000526020600020905b81548152906001019060200180831161152257829003601f168201915b5050505050905088565b60005481565b60008451141561155e57600080fd5b60008351141561156d57600080fd5b60008251141561157c57600080fd5b60008151141561158b57600080fd5b6002600081548092919060010191905055506003600081548092919060010191905055506040518060e0016040528060025481526020016040518060400160405280601181526020017f536f6369616c204173736573736d656e7400000000000000000000000000000081525081526020018581526020013373ffffffffffffffffffffffffffffffffffffffff1681526020018481526020018381526020018281525060066000600254815260200190815260200160002060008201518160000155602082015181600101908051906020019061166a929190612944565b506040820151816002019080519060200190611687929190612944565b5060608201518160030160006101000a81548173ffffffffffffffffffffffffffffffffffffffff021916908373ffffffffffffffffffffffffffffffffffffffff16021790555060808201518160040190805190602001906116eb929190612944565b5060a0820151816005019080519060200190611708929190612944565b5060c0820151816006019080519060200190611725929190612944565b509050507fc4a7bea2a2f53a57d59fc6ae4f4b6f9dd5a2dda1980749c41ec3ae8046f5139060025485338686866040518087815260200180602001806020018773ffffffffffffffffffffffffffffffffffffffff1673ffffffffffffffffffffffffffffffffffffffff168152602001806020018060200180602001868103865260118152602001807f536f6369616c204173736573736d656e7400000000000000000000000000000081525060200186810385528b818151815260200191508051906020019080838360005b8381101561180e5780820151818401526020810190506117f3565b50505050905090810190601f16801561183b5780820380516001836020036101000a031916815260200191505b50868103845289818151815260200191508051906020019080838360005b83811015611874578082015181840152602081019050611859565b50505050905090810190601f1680156118a15780820380516001836020036101000a031916815260200191505b50868103835288818151815260200191508051906020019080838360005b838110156118da5780820151818401526020810190506118bf565b50505050905090810190601f1680156119075780820380516001836020036101000a031916815260200191505b50868103825287818151815260200191508051906020019080838360005b83811015611940578082015181840152602081019050611925565b50505050905090810190601f16801561196d5780820380516001836020036101000a031916815260200191505b509b50505050505050505050505060405180910390a150505050565b60035481565b60025481565b6006602052806000526040600020600091509050806000015490806001018054600181600116156101000203166002900480601f016020809104026020016040519081016040528092919081815260200182805460018160011615610100020316600290048015611a475780601f10611a1c57610100808354040283529160200191611a47565b820191906000526020600020905b815481529060010190602001808311611a2a57829003601f168201915b505050505090806002018054600181600116156101000203166002900480601f016020809104026020016040519081016040528092919081815260200182805460018160011615610100020316600290048015611ae55780601f10611aba57610100808354040283529160200191611ae5565b820191906000526020600020905b815481529060010190602001808311611ac857829003601f168201915b5050505050908060030160009054906101000a900473ffffffffffffffffffffffffffffffffffffffff1690806004018054600181600116156101000203166002900480601f016020809104026020016040519081016040528092919081815260200182805460018160011615610100020316600290048015611ba95780601f10611b7e57610100808354040283529160200191611ba9565b820191906000526020600020905b815481529060010190602001808311611b8c57829003601f168201915b505050505090806005018054600181600116156101000203166002900480601f016020809104026020016040519081016040528092919081815260200182805460018160011615610100020316600290048015611c475780601f10611c1c57610100808354040283529160200191611c47565b820191906000526020600020905b815481529060010190602001808311611c2a57829003601f168201915b505050505090806006018054600181600116156101000203166002900480601f016020809104026020016040519081016040528092919081815260200182805460018160011615610100020316600290048015611ce55780601f10611cba57610100808354040283529160200191611ce5565b820191906000526020600020905b815481529060010190602001808311611cc857829003601f168201915b5050505050905087565b600084511415611cfe57600080fd5b600083511415611d0d57600080fd5b600082511415611d1c57600080fd5b600081511415611d2b57600080fd5b6001600081548092919060010191905055506003600081548092919060010191905055506040518060e0016040528060015481526020016040518060400160405280601881526020017f456e7669726f6e6d656e74616c204173736573736d656e74000000000000000081525081526020018581526020013373ffffffffffffffffffffffffffffffffffffffff16815260200184815260200183815260200182815250600560006001548152602001908152602001600020600082015181600001556020820151816001019080519060200190611e0a929190612944565b506040820151816002019080519060200190611e27929190612944565b5060608201518160030160006101000a81548173ffffffffffffffffffffffffffffffffffffffff021916908373ffffffffffffffffffffffffffffffffffffffff1602179055506080820151816004019080519060200190611e8b929190612944565b5060a0820151816005019080519060200190611ea8929190612944565b5060c0820151816006019080519060200190611ec5929190612944565b509050507f3ab634ec38018f6b798f4f90578d1f616d135e8922fe559c7b2a08af46d5553f60015485338686866040518087815260200180602001806020018773ffffffffffffffffffffffffffffffffffffffff1673ffffffffffffffffffffffffffffffffffffffff168152602001806020018060200180602001868103865260188152602001807f456e7669726f6e6d656e74616c204173736573736d656e74000000000000000081525060200186810385528b818151815260200191508051906020019080838360005b83811015611fae578082015181840152602081019050611f93565b50505050905090810190601f168015611fdb5780820380516001836020036101000a031916815260200191505b50868103845289818151815260200191508051906020019080838360005b83811015612014578082015181840152602081019050611ff9565b50505050905090810190601f1680156120415780820380516001836020036101000a031916815260200191505b50868103835288818151815260200191508051906020019080838360005b8381101561207a57808201518184015260208101905061205f565b50505050905090810190601f1680156120a75780820380516001836020036101000a031916815260200191505b50868103825287818151815260200191508051906020019080838360005b838110156120e05780820151818401526020810190506120c5565b50505050905090810190601f16801561210d5780820380516001836020036101000a031916815260200191505b509b50505050505050505050505060405180910390a150505050565b6005602052806000526040600020600091509050806000015490806001018054600181600116156101000203166002900480601f0160208091040260200160405190810160405280929190818152602001828054600181600116156101000203166002900480156121db5780601f106121b0576101008083540402835291602001916121db565b820191906000526020600020905b8154815290600101906020018083116121be57829003601f168201915b505050505090806002018054600181600116156101000203166002900480601f0160208091040260200160405190810160405280929190818152602001828054600181600116156101000203166002900480156122795780601f1061224e57610100808354040283529160200191612279565b820191906000526020600020905b81548152906001019060200180831161225c57829003601f168201915b5050505050908060030160009054906101000a900473ffffffffffffffffffffffffffffffffffffffff1690806004018054600181600116156101000203166002900480601f01602080910402602001604051908101604052809291908181526020018280546001816001161561010002031660029004801561233d5780601f106123125761010080835404028352916020019161233d565b820191906000526020600020905b81548152906001019060200180831161232057829003601f168201915b505050505090806005018054600181600116156101000203166002900480601f0160208091040260200160405190810160405280929190818152602001828054600181600116156101000203166002900480156123db5780601f106123b0576101008083540402835291602001916123db565b820191906000526020600020905b8154815290600101906020018083116123be57829003601f168201915b505050505090806006018054600181600116156101000203166002900480601f0160208091040260200160405190810160405280929190818152602001828054600181600116156101000203166002900480156124795780601f1061244e57610100808354040283529160200191612479565b820191906000526020600020905b81548152906001019060200180831161245c57829003601f168201915b5050505050905087565b60008551141561249257600080fd5b6000845114156124a157600080fd5b6000815114156124b057600080fd5b600080815480929190600101919050555060036000815480929190600101919050555060405180610100016040528060005481526020016040518060400160405280601581526020017f4c696665204379636c65204173736573736d656e74000000000000000000000081525081526020018681526020013373ffffffffffffffffffffffffffffffffffffffff168152602001858152602001848152602001838152602001828152506004600080548152602001908152602001600020600082015181600001556020820151816001019080519060200190612594929190612944565b5060408201518160020190805190602001906125b1929190612944565b5060608201518160030160006101000a81548173ffffffffffffffffffffffffffffffffffffffff021916908373ffffffffffffffffffffffffffffffffffffffff1602179055506080820151816004019080519060200190612615929190612944565b5060a0820151816005019080519060200190612632929190612944565b5060c082015181600601908051906020019061264f929190612944565b5060e082015181600701908051906020019061266c929190612944565b509050507fcc829da8fcabb003e10482ec8cf7ccc7b0b2448a8ab8fc800179bba286c37e886000548633878787876040518088815260200180602001806020018873ffffffffffffffffffffffffffffffffffffffff1673ffffffffffffffffffffffffffffffffffffffff16815260200180602001806020018060200180602001878103875260158152602001807f4c696665204379636c65204173736573736d656e74000000000000000000000081525060200187810386528d818151815260200191508051906020019080838360005b8381101561275a57808201518184015260208101905061273f565b50505050905090810190601f1680156127875780820380516001836020036101000a031916815260200191505b5087810385528b818151815260200191508051906020019080838360005b838110156127c05780820151818401526020810190506127a5565b50505050905090810190601f1680156127ed5780820380516001836020036101000a031916815260200191505b5087810384528a818151815260200191508051906020019080838360005b8381101561282657808201518184015260208101905061280b565b50505050905090810190601f1680156128535780820380516001836020036101000a031916815260200191505b50878103835289818151815260200191508051906020019080838360005b8381101561288c578082015181840152602081019050612871565b50505050905090810190601f1680156128b95780820380516001836020036101000a031916815260200191505b50878103825288818151815260200191508051906020019080838360005b838110156128f25780820151818401526020810190506128d7565b50505050905090810190601f16801561291f5780820380516001836020036101000a031916815260200191505b509d505050505050505050505050505060405180910390a15050505050565b60015481565b828054600181600116156101000203166002900490600052602060002090601f016020900481019282601f1061298557805160ff19168380011785556129b3565b828001600101855582156129b3579182015b828111156129b2578251825591602001919060010190612997565b5b5090506129c091906129c4565b5090565b6129e691905b808211156129e25760008160009055506001016129ca565b5090565b9056fea265627a7a72315820ff2a05017299937d66182e5d1a72d58903086fc4d134f6e25c4f77e51fc3961264736f6c63430005100032",
  "source": "pragma solidity >=0.4.22 <0.9.0;\r\n\r\ncontract Assessments {\r\n    \r\n    uint public LCACount = 0; \r\n    uint public enviroCount = 0; \r\n    uint public socialCount = 0; \r\n    uint public assessmentCount = 0; \r\n\r\n    mapping (uint => LCA) public LCAs;\r\n    mapping (uint => Enviro) public enviros;\r\n    mapping (uint => Social) public socials;\r\n\r\n    struct LCA {\r\n        uint id;\r\n        string assessType;\r\n        string date;\r\n        address account;\r\n        string document;\r\n        string month;\r\n        string year;\r\n        string process;\r\n    }\r\n\r\n    event LCAAdded(\r\n        uint id,\r\n        string assessType,\r\n        string date,\r\n        address account,\r\n        string document,\r\n        string month,\r\n        string year,\r\n        string process\r\n    );\r\n\r\n    struct Enviro {\r\n        uint id;\r\n        string assessType;\r\n        string date;\r\n        address account;\r\n        string document;\r\n        string month;\r\n        string year;\r\n    }\r\n\r\n    event EnviroAdded(\r\n        uint id,\r\n        string assessType,\r\n        string date,\r\n        address account,\r\n        string document,\r\n        string month,\r\n        string year\r\n    );\r\n\r\n    struct Social {\r\n        uint id;\r\n        string assessType;\r\n        string date;\r\n        address account;\r\n        string document;\r\n        string month;\r\n        string year;\r\n    }\r\n\r\n    event SocialAdded(\r\n        uint id,\r\n        string assessType,\r\n        string date,\r\n        address account,\r\n        string document,\r\n        string month,\r\n        string year\r\n    );\r\n\r\n    function addLCA(\r\n        string memory _date, \r\n        string memory _document,\r\n        string memory _month,\r\n        string memory _year,\r\n        string memory _process\r\n    ) public {\r\n        require(bytes(_date).length != 0);\r\n        require(bytes(_document).length != 0);\r\n        require(bytes(_process).length != 0);\r\n        LCACount++;\r\n        assessmentCount++;\r\n        LCAs[LCACount] = LCA(\r\n            LCACount,\r\n            \"Life Cycle Assessment\",\r\n            _date,\r\n            msg.sender,\r\n            _document,\r\n            _month,\r\n            _year,\r\n            _process);\r\n        emit LCAAdded(\r\n            LCACount,\r\n            \"Life Cycle Assessment\",\r\n            _date,\r\n            msg.sender,\r\n            _document,\r\n            _month,\r\n            _year,\r\n            _process);\r\n    }\r\n    function addEnviro(\r\n        string memory _date, \r\n        string memory _document,\r\n        string memory _month,\r\n        string memory _year\r\n    ) public {\r\n        require(bytes(_date).length != 0);\r\n        require(bytes(_document).length != 0);\r\n        require(bytes(_month).length != 0);\r\n        require(bytes(_year).length != 0);\r\n        enviroCount++;\r\n        assessmentCount++;\r\n        enviros[enviroCount] = Enviro(\r\n            enviroCount,\r\n            \"Environmental Assessment\",\r\n            _date,\r\n            msg.sender,\r\n            _document,\r\n            _month,\r\n            _year);\r\n        emit EnviroAdded(\r\n            enviroCount,\r\n            \"Environmental Assessment\",\r\n            _date,\r\n            msg.sender,\r\n            _document,\r\n            _month,\r\n            _year);\r\n    }\r\n    function addSocial(\r\n        string memory _date, \r\n        string memory _document,\r\n        string memory _month,\r\n        string memory _year\r\n    ) public {\r\n        require(bytes(_date).length != 0);\r\n        require(bytes(_document).length != 0);\r\n        require(bytes(_month).length != 0);\r\n        require(bytes(_year).length != 0);\r\n        socialCount++;\r\n        assessmentCount++;\r\n        socials[socialCount] = Social(\r\n            socialCount,\r\n            \"Social Assessment\",\r\n            _date,\r\n            msg.sender,\r\n            _document,\r\n            _month,\r\n            _year);\r\n        emit SocialAdded(\r\n            socialCount,\r\n            \"Social Assessment\",\r\n            _date,\r\n            msg.sender,\r\n            _document,\r\n            _month,\r\n            _year);\r\n    }\r\n}",
  "sourcePath": "C:/Users/Okay/Desktop/dapp start/contracts/Assessments.sol",
  "compiler": {
    "name": "solc",
    "version": "0.5.16+commit.9c3226ce.Emscripten.clang"
  },
  "schemaVersion": "3.4.1",
  "updatedAt": "2022-04-03T22:52:48.289Z",
  "networkType": "ethereum",
  "devdoc": {
    "methods": {}
  },
  "userdoc": {
    "methods": {}
  }
}