{
  "contractName": "Assessment",
  "abi": [
    {
      "anonymous": false,
      "inputs": [
        {
          "indexed": false,
          "internalType": "uint256",
          "name": "id",
          "type": "uint256"
        },
        {
          "indexed": false,
          "internalType": "string",
          "name": "assessType",
          "type": "string"
        },
        {
          "indexed": false,
          "internalType": "string",
          "name": "document",
          "type": "string"
        },
        {
          "indexed": false,
          "internalType": "string",
          "name": "date",
          "type": "string"
        },
        {
          "indexed": false,
          "internalType": "string",
          "name": "account",
          "type": "string"
        }
      ],
      "name": "AssessmentAdded",
      "type": "event"
    },
    {
      "constant": true,
      "inputs": [],
      "name": "assessmentCount",
      "outputs": [
        {
          "internalType": "uint256",
          "name": "",
          "type": "uint256"
        }
      ],
      "payable": false,
      "stateMutability": "view",
      "type": "function"
    },
    {
      "constant": true,
      "inputs": [
        {
          "internalType": "uint256",
          "name": "",
          "type": "uint256"
        }
      ],
      "name": "assessments",
      "outputs": [
        {
          "internalType": "uint256",
          "name": "id",
          "type": "uint256"
        },
        {
          "internalType": "string",
          "name": "assessType",
          "type": "string"
        },
        {
          "internalType": "string",
          "name": "document",
          "type": "string"
        },
        {
          "internalType": "string",
          "name": "date",
          "type": "string"
        },
        {
          "internalType": "string",
          "name": "account",
          "type": "string"
        }
      ],
      "payable": false,
      "stateMutability": "view",
      "type": "function"
    },
    {
      "constant": false,
      "inputs": [
        {
          "internalType": "string",
          "name": "_assessType",
          "type": "string"
        },
        {
          "internalType": "string",
          "name": "_document",
          "type": "string"
        },
        {
          "internalType": "string",
          "name": "_date",
          "type": "string"
        },
        {
          "internalType": "string",
          "name": "_account",
          "type": "string"
        }
      ],
      "name": "addAssessment",
      "outputs": [],
      "payable": false,
      "stateMutability": "nonpayable",
      "type": "function"
    }
  ],
  "bytecode": "0x60806040526000805534801561001457600080fd5b50610b4a806100246000396000f3fe608060405234801561001057600080fd5b50600436106100415760003560e01c80633e80239e146100465780634eb6a3b2146102c6578063817215e1146104b8575b600080fd5b6102c46004803603608081101561005c57600080fd5b810190808035906020019064010000000081111561007957600080fd5b82018360208201111561008b57600080fd5b803590602001918460018302840111640100000000831117156100ad57600080fd5b91908080601f016020809104026020016040519081016040528093929190818152602001838380828437600081840152601f19601f8201169050808301925050505050505091929192908035906020019064010000000081111561011057600080fd5b82018360208201111561012257600080fd5b8035906020019184600183028401116401000000008311171561014457600080fd5b91908080601f016020809104026020016040519081016040528093929190818152602001838380828437600081840152601f19601f820116905080830192505050505050509192919290803590602001906401000000008111156101a757600080fd5b8201836020820111156101b957600080fd5b803590602001918460018302840111640100000000831117156101db57600080fd5b91908080601f016020809104026020016040519081016040528093929190818152602001838380828437600081840152601f19601f8201169050808301925050505050505091929192908035906020019064010000000081111561023e57600080fd5b82018360208201111561025057600080fd5b8035906020019184600183028401116401000000008311171561027257600080fd5b91908080601f016020809104026020016040519081016040528093929190818152602001838380828437600081840152601f19601f8201169050808301925050505050505091929192905050506104d6565b005b6102f2600480360360208110156102dc57600080fd5b81019080803590602001909291905050506107d4565b6040518086815260200180602001806020018060200180602001858103855289818151815260200191508051906020019080838360005b83811015610344578082015181840152602081019050610329565b50505050905090810190601f1680156103715780820380516001836020036101000a031916815260200191505b50858103845288818151815260200191508051906020019080838360005b838110156103aa57808201518184015260208101905061038f565b50505050905090810190601f1680156103d75780820380516001836020036101000a031916815260200191505b50858103835287818151815260200191508051906020019080838360005b838110156104105780820151818401526020810190506103f5565b50505050905090810190601f16801561043d5780820380516001836020036101000a031916815260200191505b50858103825286818151815260200191508051906020019080838360005b8381101561047657808201518184015260208101905061045b565b50505050905090810190601f1680156104a35780820380516001836020036101000a031916815260200191505b50995050505050505050505060405180910390f35b6104c0610a6a565b6040518082815260200191505060405180910390f35b6000845114156104e557600080fd5b6000835114156104f457600080fd5b60008251141561050357600080fd5b60008151141561051257600080fd5b60008081548092919060010191905055506040518060a001604052806000548152602001858152602001848152602001838152602001828152506001600080548152602001908152602001600020600082015181600001556020820151816001019080519060200190610586929190610a70565b5060408201518160020190805190602001906105a3929190610a70565b5060608201518160030190805190602001906105c0929190610a70565b5060808201518160040190805190602001906105dd929190610a70565b509050507fcb1ae60f4f20855c2cc8f7b21834c9b5075eb5714da55b2898816cecd835b688600054858585856040518086815260200180602001806020018060200180602001858103855289818151815260200191508051906020019080838360005b8381101561065b578082015181840152602081019050610640565b50505050905090810190601f1680156106885780820380516001836020036101000a031916815260200191505b50858103845288818151815260200191508051906020019080838360005b838110156106c15780820151818401526020810190506106a6565b50505050905090810190601f1680156106ee5780820380516001836020036101000a031916815260200191505b50858103835287818151815260200191508051906020019080838360005b8381101561072757808201518184015260208101905061070c565b50505050905090810190601f1680156107545780820380516001836020036101000a031916815260200191505b50858103825286818151815260200191508051906020019080838360005b8381101561078d578082015181840152602081019050610772565b50505050905090810190601f1680156107ba5780820380516001836020036101000a031916815260200191505b50995050505050505050505060405180910390a150505050565b6001602052806000526040600020600091509050806000015490806001018054600181600116156101000203166002900480601f0160208091040260200160405190810160405280929190818152602001828054600181600116156101000203166002900480156108865780601f1061085b57610100808354040283529160200191610886565b820191906000526020600020905b81548152906001019060200180831161086957829003601f168201915b505050505090806002018054600181600116156101000203166002900480601f0160208091040260200160405190810160405280929190818152602001828054600181600116156101000203166002900480156109245780601f106108f957610100808354040283529160200191610924565b820191906000526020600020905b81548152906001019060200180831161090757829003601f168201915b505050505090806003018054600181600116156101000203166002900480601f0160208091040260200160405190810160405280929190818152602001828054600181600116156101000203166002900480156109c25780601f10610997576101008083540402835291602001916109c2565b820191906000526020600020905b8154815290600101906020018083116109a557829003601f168201915b505050505090806004018054600181600116156101000203166002900480601f016020809104026020016040519081016040528092919081815260200182805460018160011615610100020316600290048015610a605780601f10610a3557610100808354040283529160200191610a60565b820191906000526020600020905b815481529060010190602001808311610a4357829003601f168201915b5050505050905085565b60005481565b828054600181600116156101000203166002900490600052602060002090601f016020900481019282601f10610ab157805160ff1916838001178555610adf565b82800160010185558215610adf579182015b82811115610ade578251825591602001919060010190610ac3565b5b509050610aec9190610af0565b5090565b610b1291905b80821115610b0e576000816000905550600101610af6565b5090565b9056fea265627a7a7231582033293c25d0ac636e440d77865757624ca20872b5409e50b79fdc1ce644d7cad464736f6c63430005100032",
  "source": "pragma solidity >=0.4.22 <0.9.0;\r\n\r\ncontract Assessment {\r\n    \r\n    uint public assessmentCount = 0; \r\n\r\n    mapping (uint => Assessment) public assessments;\r\n\r\n    struct Assessment {\r\n        uint id;\r\n        string assessType;\r\n        string document;\r\n        string date;\r\n        string account;\r\n    }\r\n\r\n    event AssessmentAdded(\r\n        uint id,\r\n        string assessType,\r\n        string document,\r\n        string date,\r\n        string account\r\n    );\r\n\r\n    function addAssessment(\r\n        string memory _assessType, \r\n        string memory _document,\r\n        string memory _date,\r\n        string memory _account\r\n    ) public {\r\n        require(bytes(_assessType).length != 0);\r\n        require(bytes(_document).length != 0);\r\n        require(bytes(_date).length != 0);\r\n        require(bytes(_account).length != 0);\r\n        assessmentCount++;\r\n        assessments[assessmentCount] = Assessment(\r\n            assessmentCount,\r\n            _assessType,\r\n            _document,\r\n            _date,\r\n            _account);\r\n        emit AssessmentAdded(\r\n            assessmentCount,\r\n            _assessType,\r\n            _document,\r\n            _date,\r\n            _account);\r\n    }\r\n}",
  "sourcePath": "C:/Users/Okay/Desktop/dapp start/contracts/Assessment.sol",
  "compiler": {
    "name": "solc",
    "version": "0.5.16+commit.9c3226ce.Emscripten.clang"
  },
  "schemaVersion": "3.4.1",
  "updatedAt": "2022-03-05T20:30:01.819Z",
  "networkType": "ethereum",
  "devdoc": {
    "methods": {}
  },
  "userdoc": {
    "methods": {}
  }
}