{
  "contractName": "Assessments",
  "abi": [
    {
      "anonymous": false,
      "inputs": [
        {
          "indexed": false,
          "internalType": "uint256",
          "name": "id",
          "type": "uint256"
        },
        {
          "indexed": false,
          "internalType": "string",
          "name": "assessType",
          "type": "string"
        },
        {
          "indexed": false,
          "internalType": "string",
          "name": "date",
          "type": "string"
        },
        {
          "indexed": false,
          "internalType": "address",
          "name": "account",
          "type": "address"
        },
        {
          "indexed": false,
          "internalType": "string",
          "name": "document",
          "type": "string"
        }
      ],
      "name": "AssessmentAdded",
      "type": "event"
    },
    {
      "constant": true,
      "inputs": [],
      "name": "assessmentCount",
      "outputs": [
        {
          "internalType": "uint256",
          "name": "",
          "type": "uint256"
        }
      ],
      "payable": false,
      "stateMutability": "view",
      "type": "function"
    },
    {
      "constant": true,
      "inputs": [
        {
          "internalType": "uint256",
          "name": "",
          "type": "uint256"
        }
      ],
      "name": "assessments",
      "outputs": [
        {
          "internalType": "uint256",
          "name": "id",
          "type": "uint256"
        },
        {
          "internalType": "string",
          "name": "assessType",
          "type": "string"
        },
        {
          "internalType": "string",
          "name": "date",
          "type": "string"
        },
        {
          "internalType": "address",
          "name": "account",
          "type": "address"
        },
        {
          "internalType": "string",
          "name": "document",
          "type": "string"
        }
      ],
      "payable": false,
      "stateMutability": "view",
      "type": "function"
    },
    {
      "constant": false,
      "inputs": [
        {
          "internalType": "string",
          "name": "_assessType",
          "type": "string"
        },
        {
          "internalType": "string",
          "name": "_date",
          "type": "string"
        },
        {
          "internalType": "string",
          "name": "_document",
          "type": "string"
        }
      ],
      "name": "addAssessment",
      "outputs": [],
      "payable": false,
      "stateMutability": "nonpayable",
      "type": "function"
    }
  ],
  "bytecode": "0x60806040526000805534801561001457600080fd5b506109f9806100246000396000f3fe608060405234801561001057600080fd5b50600436106100415760003560e01c80634eb6a3b214610046578063817215e1146101ff578063f32bc3321461021d575b600080fd5b6100726004803603602081101561005c57600080fd5b8101908080359060200190929190505050610406565b6040518086815260200180602001806020018573ffffffffffffffffffffffffffffffffffffffff1673ffffffffffffffffffffffffffffffffffffffff16815260200180602001848103845288818151815260200191508051906020019080838360005b838110156100f25780820151818401526020810190506100d7565b50505050905090810190601f16801561011f5780820380516001836020036101000a031916815260200191505b50848103835287818151815260200191508051906020019080838360005b8381101561015857808201518184015260208101905061013d565b50505050905090810190601f1680156101855780820380516001836020036101000a031916815260200191505b50848103825285818151815260200191508051906020019080838360005b838110156101be5780820151818401526020810190506101a3565b50505050905090810190601f1680156101eb5780820380516001836020036101000a031916815260200191505b509850505050505050505060405180910390f35b610207610624565b6040518082815260200191505060405180910390f35b6104046004803603606081101561023357600080fd5b810190808035906020019064010000000081111561025057600080fd5b82018360208201111561026257600080fd5b8035906020019184600183028401116401000000008311171561028457600080fd5b91908080601f016020809104026020016040519081016040528093929190818152602001838380828437600081840152601f19601f820116905080830192505050505050509192919290803590602001906401000000008111156102e757600080fd5b8201836020820111156102f957600080fd5b8035906020019184600183028401116401000000008311171561031b57600080fd5b91908080601f016020809104026020016040519081016040528093929190818152602001838380828437600081840152601f19601f8201169050808301925050505050505091929192908035906020019064010000000081111561037e57600080fd5b82018360208201111561039057600080fd5b803590602001918460018302840111640100000000831117156103b257600080fd5b91908080601f016020809104026020016040519081016040528093929190818152602001838380828437600081840152601f19601f82011690508083019250505050505050919291929050505061062a565b005b6001602052806000526040600020600091509050806000015490806001018054600181600116156101000203166002900480601f0160208091040260200160405190810160405280929190818152602001828054600181600116156101000203166002900480156104b85780601f1061048d576101008083540402835291602001916104b8565b820191906000526020600020905b81548152906001019060200180831161049b57829003601f168201915b505050505090806002018054600181600116156101000203166002900480601f0160208091040260200160405190810160405280929190818152602001828054600181600116156101000203166002900480156105565780601f1061052b57610100808354040283529160200191610556565b820191906000526020600020905b81548152906001019060200180831161053957829003601f168201915b5050505050908060030160009054906101000a900473ffffffffffffffffffffffffffffffffffffffff1690806004018054600181600116156101000203166002900480601f01602080910402602001604051908101604052809291908181526020018280546001816001161561010002031660029004801561061a5780601f106105ef5761010080835404028352916020019161061a565b820191906000526020600020905b8154815290600101906020018083116105fd57829003601f168201915b5050505050905085565b60005481565b60008351141561063957600080fd5b60008251141561064857600080fd5b60008151141561065757600080fd5b60008081548092919060010191905055506040518060a0016040528060005481526020018481526020018381526020013373ffffffffffffffffffffffffffffffffffffffff1681526020018281525060016000805481526020019081526020016000206000820151816000015560208201518160010190805190602001906106e192919061091f565b5060408201518160020190805190602001906106fe92919061091f565b5060608201518160030160006101000a81548173ffffffffffffffffffffffffffffffffffffffff021916908373ffffffffffffffffffffffffffffffffffffffff160217905550608082015181600401908051906020019061076292919061091f565b509050507fda54e29622b65f21468ea5a3aa370576bfd865152049e02659b3f065eab976b5600054848433856040518086815260200180602001806020018573ffffffffffffffffffffffffffffffffffffffff1673ffffffffffffffffffffffffffffffffffffffff16815260200180602001848103845288818151815260200191508051906020019080838360005b8381101561080e5780820151818401526020810190506107f3565b50505050905090810190601f16801561083b5780820380516001836020036101000a031916815260200191505b50848103835287818151815260200191508051906020019080838360005b83811015610874578082015181840152602081019050610859565b50505050905090810190601f1680156108a15780820380516001836020036101000a031916815260200191505b50848103825285818151815260200191508051906020019080838360005b838110156108da5780820151818401526020810190506108bf565b50505050905090810190601f1680156109075780820380516001836020036101000a031916815260200191505b509850505050505050505060405180910390a1505050565b828054600181600116156101000203166002900490600052602060002090601f016020900481019282601f1061096057805160ff191683800117855561098e565b8280016001018555821561098e579182015b8281111561098d578251825591602001919060010190610972565b5b50905061099b919061099f565b5090565b6109c191905b808211156109bd5760008160009055506001016109a5565b5090565b9056fea265627a7a72315820612a0f7feeffc49d7a9a006779e4b7eb7127161654be0a6b7080d6e47eba574964736f6c63430005100032",
  "source": "pragma solidity >=0.4.22 <0.9.0;\r\n\r\ncontract Assessments {\r\n    \r\n    uint public assessmentCount = 0; \r\n\r\n    mapping (uint => Assessment) public assessments;\r\n\r\n    struct Assessment {\r\n        uint id;\r\n        string assessType;\r\n        string date;\r\n        address account;\r\n        string document;\r\n    }\r\n\r\n    event AssessmentAdded(\r\n        uint id,\r\n        string assessType,\r\n        string date,\r\n        address account,\r\n        string document\r\n    );\r\n\r\n    function addAssessment(\r\n        string memory _assessType,\r\n        string memory _date, \r\n        string memory _document\r\n    ) public {\r\n        require(bytes(_assessType).length != 0);\r\n        require(bytes(_date).length != 0);\r\n        require(bytes(_document).length != 0);\r\n        assessmentCount++;\r\n        assessments[assessmentCount] = Assessment(\r\n            assessmentCount,\r\n            _assessType,\r\n            _date,\r\n            msg.sender,\r\n            _document);\r\n        emit AssessmentAdded(\r\n            assessmentCount,\r\n            _assessType,\r\n            _date,\r\n            msg.sender,\r\n            _document);\r\n    }\r\n}",
  "sourcePath": "C:/Users/Okay/Desktop/dapp start/contracts/Assessments.sol",
  "compiler": {
    "name": "solc",
    "version": "0.5.16+commit.9c3226ce.Emscripten.clang"
  },
  "schemaVersion": "3.4.1",
  "updatedAt": "2022-03-16T14:47:46.256Z",
  "networkType": "ethereum",
  "devdoc": {
    "methods": {}
  },
  "userdoc": {
    "methods": {}
  }
}