{
  "contractName": "Origin",
  "abi": [
    {
      "anonymous": false,
      "inputs": [
        {
          "indexed": false,
          "internalType": "uint256",
          "name": "id",
          "type": "uint256"
        },
        {
          "indexed": false,
          "internalType": "string",
          "name": "name",
          "type": "string"
        },
        {
          "indexed": false,
          "internalType": "string",
          "name": "file",
          "type": "string"
        }
      ],
      "name": "CertificateAdded",
      "type": "event"
    },
    {
      "anonymous": false,
      "inputs": [
        {
          "indexed": false,
          "internalType": "uint256",
          "name": "id",
          "type": "uint256"
        },
        {
          "indexed": false,
          "internalType": "string",
          "name": "name",
          "type": "string"
        },
        {
          "indexed": false,
          "internalType": "string",
          "name": "quantity",
          "type": "string"
        },
        {
          "indexed": false,
          "internalType": "string",
          "name": "unit",
          "type": "string"
        },
        {
          "indexed": false,
          "internalType": "string",
          "name": "date",
          "type": "string"
        },
        {
          "indexed": false,
          "internalType": "string",
          "name": "account",
          "type": "string"
        }
      ],
      "name": "OrderAdded",
      "type": "event"
    },
    {
      "anonymous": false,
      "inputs": [
        {
          "indexed": false,
          "internalType": "uint256",
          "name": "id",
          "type": "uint256"
        },
        {
          "indexed": false,
          "internalType": "string",
          "name": "name",
          "type": "string"
        },
        {
          "indexed": false,
          "internalType": "string",
          "name": "image",
          "type": "string"
        },
        {
          "indexed": false,
          "internalType": "string",
          "name": "company",
          "type": "string"
        }
      ],
      "name": "ProductAdded",
      "type": "event"
    },
    {
      "anonymous": false,
      "inputs": [
        {
          "indexed": false,
          "internalType": "uint256",
          "name": "id",
          "type": "uint256"
        },
        {
          "indexed": false,
          "internalType": "string",
          "name": "shipType",
          "type": "string"
        },
        {
          "indexed": false,
          "internalType": "string",
          "name": "place",
          "type": "string"
        },
        {
          "indexed": false,
          "internalType": "string",
          "name": "latitude",
          "type": "string"
        },
        {
          "indexed": false,
          "internalType": "string",
          "name": "longitude",
          "type": "string"
        },
        {
          "indexed": false,
          "internalType": "string",
          "name": "date",
          "type": "string"
        },
        {
          "indexed": false,
          "internalType": "string",
          "name": "account",
          "type": "string"
        }
      ],
      "name": "ShipmentAdded",
      "type": "event"
    },
    {
      "constant": true,
      "inputs": [],
      "name": "certificateCount",
      "outputs": [
        {
          "internalType": "uint256",
          "name": "",
          "type": "uint256"
        }
      ],
      "payable": false,
      "stateMutability": "view",
      "type": "function"
    },
    {
      "constant": true,
      "inputs": [
        {
          "internalType": "uint256",
          "name": "",
          "type": "uint256"
        }
      ],
      "name": "certificates",
      "outputs": [
        {
          "internalType": "uint256",
          "name": "id",
          "type": "uint256"
        },
        {
          "internalType": "string",
          "name": "name",
          "type": "string"
        },
        {
          "internalType": "string",
          "name": "file",
          "type": "string"
        }
      ],
      "payable": false,
      "stateMutability": "view",
      "type": "function"
    },
    {
      "constant": true,
      "inputs": [],
      "name": "orderCount",
      "outputs": [
        {
          "internalType": "uint256",
          "name": "",
          "type": "uint256"
        }
      ],
      "payable": false,
      "stateMutability": "view",
      "type": "function"
    },
    {
      "constant": true,
      "inputs": [
        {
          "internalType": "uint256",
          "name": "",
          "type": "uint256"
        }
      ],
      "name": "orders",
      "outputs": [
        {
          "internalType": "uint256",
          "name": "id",
          "type": "uint256"
        },
        {
          "internalType": "string",
          "name": "name",
          "type": "string"
        },
        {
          "internalType": "string",
          "name": "quantity",
          "type": "string"
        },
        {
          "internalType": "string",
          "name": "unit",
          "type": "string"
        },
        {
          "internalType": "string",
          "name": "date",
          "type": "string"
        },
        {
          "internalType": "string",
          "name": "account",
          "type": "string"
        }
      ],
      "payable": false,
      "stateMutability": "view",
      "type": "function"
    },
    {
      "constant": true,
      "inputs": [],
      "name": "productCount",
      "outputs": [
        {
          "internalType": "uint256",
          "name": "",
          "type": "uint256"
        }
      ],
      "payable": false,
      "stateMutability": "view",
      "type": "function"
    },
    {
      "constant": true,
      "inputs": [
        {
          "internalType": "uint256",
          "name": "",
          "type": "uint256"
        }
      ],
      "name": "products",
      "outputs": [
        {
          "internalType": "uint256",
          "name": "id",
          "type": "uint256"
        },
        {
          "internalType": "string",
          "name": "name",
          "type": "string"
        },
        {
          "internalType": "string",
          "name": "image",
          "type": "string"
        },
        {
          "internalType": "string",
          "name": "company",
          "type": "string"
        }
      ],
      "payable": false,
      "stateMutability": "view",
      "type": "function"
    },
    {
      "constant": true,
      "inputs": [],
      "name": "shipmentCount",
      "outputs": [
        {
          "internalType": "uint256",
          "name": "",
          "type": "uint256"
        }
      ],
      "payable": false,
      "stateMutability": "view",
      "type": "function"
    },
    {
      "constant": true,
      "inputs": [
        {
          "internalType": "uint256",
          "name": "",
          "type": "uint256"
        }
      ],
      "name": "shipments",
      "outputs": [
        {
          "internalType": "uint256",
          "name": "id",
          "type": "uint256"
        },
        {
          "internalType": "string",
          "name": "shipType",
          "type": "string"
        },
        {
          "internalType": "string",
          "name": "place",
          "type": "string"
        },
        {
          "internalType": "string",
          "name": "latitude",
          "type": "string"
        },
        {
          "internalType": "string",
          "name": "longitude",
          "type": "string"
        },
        {
          "internalType": "string",
          "name": "date",
          "type": "string"
        },
        {
          "internalType": "string",
          "name": "account",
          "type": "string"
        }
      ],
      "payable": false,
      "stateMutability": "view",
      "type": "function"
    },
    {
      "constant": false,
      "inputs": [
        {
          "internalType": "string",
          "name": "_name",
          "type": "string"
        },
        {
          "internalType": "string",
          "name": "_image",
          "type": "string"
        },
        {
          "internalType": "string",
          "name": "_company",
          "type": "string"
        }
      ],
      "name": "addProduct",
      "outputs": [],
      "payable": false,
      "stateMutability": "nonpayable",
      "type": "function"
    },
    {
      "constant": false,
      "inputs": [
        {
          "internalType": "string",
          "name": "_name",
          "type": "string"
        },
        {
          "internalType": "string",
          "name": "_quantity",
          "type": "string"
        },
        {
          "internalType": "string",
          "name": "_unit",
          "type": "string"
        },
        {
          "internalType": "string",
          "name": "_date",
          "type": "string"
        },
        {
          "internalType": "string",
          "name": "_account",
          "type": "string"
        }
      ],
      "name": "addOrder",
      "outputs": [],
      "payable": false,
      "stateMutability": "nonpayable",
      "type": "function"
    },
    {
      "constant": false,
      "inputs": [
        {
          "internalType": "string",
          "name": "_name",
          "type": "string"
        },
        {
          "internalType": "string",
          "name": "_file",
          "type": "string"
        }
      ],
      "name": "addCertificate",
      "outputs": [],
      "payable": false,
      "stateMutability": "nonpayable",
      "type": "function"
    },
    {
      "constant": false,
      "inputs": [
        {
          "internalType": "string",
          "name": "_shipType",
          "type": "string"
        },
        {
          "internalType": "string",
          "name": "_place",
          "type": "string"
        },
        {
          "internalType": "string",
          "name": "_latitude",
          "type": "string"
        },
        {
          "internalType": "string",
          "name": "_longitude",
          "type": "string"
        },
        {
          "internalType": "string",
          "name": "_date",
          "type": "string"
        },
        {
          "internalType": "string",
          "name": "_account",
          "type": "string"
        }
      ],
      "name": "addShipment",
      "outputs": [],
      "payable": false,
      "stateMutability": "nonpayable",
      "type": "function"
    }
  ],
  "bytecode": "0x60806040526000805560006001556000600255600060035534801561002357600080fd5b50612a41806100336000396000f3fe608060405234801561001057600080fd5b50600436106100b45760003560e01c80637acc0b20116100715780637acc0b2014610a70578063a85c38ef14610bf6578063aace20b714610e54578063b1a2830114610e72578063e0f6ef8714611189578063e24f2ce7146111a7576100b4565b80630e34b00e146100b95780632453ffa8146102a25780632ac08a93146102c0578063342184731461058a57806352d7b89c14610938578063663b3e2214610956575b600080fd5b6102a0600480360360608110156100cf57600080fd5b81019080803590602001906401000000008111156100ec57600080fd5b8201836020820111156100fe57600080fd5b8035906020019184600183028401116401000000008311171561012057600080fd5b91908080601f016020809104026020016040519081016040528093929190818152602001838380828437600081840152601f19601f8201169050808301925050505050505091929192908035906020019064010000000081111561018357600080fd5b82018360208201111561019557600080fd5b803590602001918460018302840111640100000000831117156101b757600080fd5b91908080601f016020809104026020016040519081016040528093929190818152602001838380828437600081840152601f19601f8201169050808301925050505050505091929192908035906020019064010000000081111561021a57600080fd5b82018360208201111561022c57600080fd5b8035906020019184600183028401116401000000008311171561024e57600080fd5b91908080601f016020809104026020016040519081016040528093929190818152602001838380828437600081840152601f19601f8201169050808301925050505050505091929192905050506112f9565b005b6102aa611557565b6040518082815260200191505060405180910390f35b6102ec600480360360208110156102d657600080fd5b810190808035906020019092919050505061155d565b6040518088815260200180602001806020018060200180602001806020018060200187810387528d818151815260200191508051906020019080838360005b8381101561034657808201518184015260208101905061032b565b50505050905090810190601f1680156103735780820380516001836020036101000a031916815260200191505b5087810386528c818151815260200191508051906020019080838360005b838110156103ac578082015181840152602081019050610391565b50505050905090810190601f1680156103d95780820380516001836020036101000a031916815260200191505b5087810385528b818151815260200191508051906020019080838360005b838110156104125780820151818401526020810190506103f7565b50505050905090810190601f16801561043f5780820380516001836020036101000a031916815260200191505b5087810384528a818151815260200191508051906020019080838360005b8381101561047857808201518184015260208101905061045d565b50505050905090810190601f1680156104a55780820380516001836020036101000a031916815260200191505b50878103835289818151815260200191508051906020019080838360005b838110156104de5780820151818401526020810190506104c3565b50505050905090810190601f16801561050b5780820380516001836020036101000a031916815260200191505b50878103825288818151815260200191508051906020019080838360005b83811015610544578082015181840152602081019050610529565b50505050905090810190601f1680156105715780820380516001836020036101000a031916815260200191505b509d505050505050505050505050505060405180910390f35b610936600480360360c08110156105a057600080fd5b81019080803590602001906401000000008111156105bd57600080fd5b8201836020820111156105cf57600080fd5b803590602001918460018302840111640100000000831117156105f157600080fd5b91908080601f016020809104026020016040519081016040528093929190818152602001838380828437600081840152601f19601f8201169050808301925050505050505091929192908035906020019064010000000081111561065457600080fd5b82018360208201111561066657600080fd5b8035906020019184600183028401116401000000008311171561068857600080fd5b91908080601f016020809104026020016040519081016040528093929190818152602001838380828437600081840152601f19601f820116905080830192505050505050509192919290803590602001906401000000008111156106eb57600080fd5b8201836020820111156106fd57600080fd5b8035906020019184600183028401116401000000008311171561071f57600080fd5b91908080601f016020809104026020016040519081016040528093929190818152602001838380828437600081840152601f19601f8201169050808301925050505050505091929192908035906020019064010000000081111561078257600080fd5b82018360208201111561079457600080fd5b803590602001918460018302840111640100000000831117156107b657600080fd5b91908080601f016020809104026020016040519081016040528093929190818152602001838380828437600081840152601f19601f8201169050808301925050505050505091929192908035906020019064010000000081111561081957600080fd5b82018360208201111561082b57600080fd5b8035906020019184600183028401116401000000008311171561084d57600080fd5b91908080601f016020809104026020016040519081016040528093929190818152602001838380828437600081840152601f19601f820116905080830192505050505050509192919290803590602001906401000000008111156108b057600080fd5b8201836020820111156108c257600080fd5b803590602001918460018302840111640100000000831117156108e457600080fd5b91908080601f016020809104026020016040519081016040528093929190818152602001838380828437600081840152601f19601f82011690508083019250505050505050919291929050505061192f565b005b610940611d6f565b6040518082815260200191505060405180910390f35b6109826004803603602081101561096c57600080fd5b8101908080359060200190929190505050611d75565b604051808481526020018060200180602001838103835285818151815260200191508051906020019080838360005b838110156109cc5780820151818401526020810190506109b1565b50505050905090810190601f1680156109f95780820380516001836020036101000a031916815260200191505b50838103825284818151815260200191508051906020019080838360005b83811015610a32578082015181840152602081019050610a17565b50505050905090810190601f168015610a5f5780820380516001836020036101000a031916815260200191505b509550505050505060405180910390f35b610a9c60048036036020811015610a8657600080fd5b8101908080359060200190929190505050611ecf565b60405180858152602001806020018060200180602001848103845287818151815260200191508051906020019080838360005b83811015610aea578082015181840152602081019050610acf565b50505050905090810190601f168015610b175780820380516001836020036101000a031916815260200191505b50848103835286818151815260200191508051906020019080838360005b83811015610b50578082015181840152602081019050610b35565b50505050905090810190601f168015610b7d5780820380516001836020036101000a031916815260200191505b50848103825285818151815260200191508051906020019080838360005b83811015610bb6578082015181840152602081019050610b9b565b50505050905090810190601f168015610be35780820380516001836020036101000a031916815260200191505b5097505050505050505060405180910390f35b610c2260048036036020811015610c0c57600080fd5b81019080803590602001909291905050506120c7565b60405180878152602001806020018060200180602001806020018060200186810386528b818151815260200191508051906020019080838360005b83811015610c78578082015181840152602081019050610c5d565b50505050905090810190601f168015610ca55780820380516001836020036101000a031916815260200191505b5086810385528a818151815260200191508051906020019080838360005b83811015610cde578082015181840152602081019050610cc3565b50505050905090810190601f168015610d0b5780820380516001836020036101000a031916815260200191505b50868103845289818151815260200191508051906020019080838360005b83811015610d44578082015181840152602081019050610d29565b50505050905090810190601f168015610d715780820380516001836020036101000a031916815260200191505b50868103835288818151815260200191508051906020019080838360005b83811015610daa578082015181840152602081019050610d8f565b50505050905090810190601f168015610dd75780820380516001836020036101000a031916815260200191505b50868103825287818151815260200191508051906020019080838360005b83811015610e10578082015181840152602081019050610df5565b50505050905090810190601f168015610e3d5780820380516001836020036101000a031916815260200191505b509b50505050505050505050505060405180910390f35b610e5c6123fb565b6040518082815260200191505060405180910390f35b611187600480360360a0811015610e8857600080fd5b8101908080359060200190640100000000811115610ea557600080fd5b820183602082011115610eb757600080fd5b80359060200191846001830284011164010000000083111715610ed957600080fd5b91908080601f016020809104026020016040519081016040528093929190818152602001838380828437600081840152601f19601f82011690508083019250505050505050919291929080359060200190640100000000811115610f3c57600080fd5b820183602082011115610f4e57600080fd5b80359060200191846001830284011164010000000083111715610f7057600080fd5b91908080601f016020809104026020016040519081016040528093929190818152602001838380828437600081840152601f19601f82011690508083019250505050505050919291929080359060200190640100000000811115610fd357600080fd5b820183602082011115610fe557600080fd5b8035906020019184600183028401116401000000008311171561100757600080fd5b91908080601f016020809104026020016040519081016040528093929190818152602001838380828437600081840152601f19601f8201169050808301925050505050505091929192908035906020019064010000000081111561106a57600080fd5b82018360208201111561107c57600080fd5b8035906020019184600183028401116401000000008311171561109e57600080fd5b91908080601f016020809104026020016040519081016040528093929190818152602001838380828437600081840152601f19601f8201169050808301925050505050505091929192908035906020019064010000000081111561110157600080fd5b82018360208201111561111357600080fd5b8035906020019184600183028401116401000000008311171561113557600080fd5b91908080601f016020809104026020016040519081016040528093929190818152602001838380828437600081840152601f19601f820116905080830192505050505050509192919290505050612401565b005b6111916127a1565b6040518082815260200191505060405180910390f35b6112f7600480360360408110156111bd57600080fd5b81019080803590602001906401000000008111156111da57600080fd5b8201836020820111156111ec57600080fd5b8035906020019184600183028401116401000000008311171561120e57600080fd5b91908080601f016020809104026020016040519081016040528093929190818152602001838380828437600081840152601f19601f8201169050808301925050505050505091929192908035906020019064010000000081111561127157600080fd5b82018360208201111561128357600080fd5b803590602001918460018302840111640100000000831117156112a557600080fd5b91908080601f016020809104026020016040519081016040528093929190818152602001838380828437600081840152601f19601f8201169050808301925050505050505091929192905050506127a7565b005b60008351141561130857600080fd5b60008251141561131757600080fd5b60008151141561132657600080fd5b600080815480929190600101919050555060405180608001604052806000548152602001848152602001838152602001828152506004600080548152602001908152602001600020600082015181600001556020820151816001019080519060200190611394929190612967565b5060408201518160020190805190602001906113b1929190612967565b5060608201518160030190805190602001906113ce929190612967565b509050507f2ad97e35e5231a127d0d7b6cd0aa552ec47d312eff0ef74961fb06c5ae92688460005484848460405180858152602001806020018060200180602001848103845287818151815260200191508051906020019080838360005b8381101561144757808201518184015260208101905061142c565b50505050905090810190601f1680156114745780820380516001836020036101000a031916815260200191505b50848103835286818151815260200191508051906020019080838360005b838110156114ad578082015181840152602081019050611492565b50505050905090810190601f1680156114da5780820380516001836020036101000a031916815260200191505b50848103825285818151815260200191508051906020019080838360005b838110156115135780820151818401526020810190506114f8565b50505050905090810190601f1680156115405780820380516001836020036101000a031916815260200191505b5097505050505050505060405180910390a1505050565b60015481565b6007602052806000526040600020600091509050806000015490806001018054600181600116156101000203166002900480601f01602080910402602001604051908101604052809291908181526020018280546001816001161561010002031660029004801561160f5780601f106115e45761010080835404028352916020019161160f565b820191906000526020600020905b8154815290600101906020018083116115f257829003601f168201915b505050505090806002018054600181600116156101000203166002900480601f0160208091040260200160405190810160405280929190818152602001828054600181600116156101000203166002900480156116ad5780601f10611682576101008083540402835291602001916116ad565b820191906000526020600020905b81548152906001019060200180831161169057829003601f168201915b505050505090806003018054600181600116156101000203166002900480601f01602080910402602001604051908101604052809291908181526020018280546001816001161561010002031660029004801561174b5780601f106117205761010080835404028352916020019161174b565b820191906000526020600020905b81548152906001019060200180831161172e57829003601f168201915b505050505090806004018054600181600116156101000203166002900480601f0160208091040260200160405190810160405280929190818152602001828054600181600116156101000203166002900480156117e95780601f106117be576101008083540402835291602001916117e9565b820191906000526020600020905b8154815290600101906020018083116117cc57829003601f168201915b505050505090806005018054600181600116156101000203166002900480601f0160208091040260200160405190810160405280929190818152602001828054600181600116156101000203166002900480156118875780601f1061185c57610100808354040283529160200191611887565b820191906000526020600020905b81548152906001019060200180831161186a57829003601f168201915b505050505090806006018054600181600116156101000203166002900480601f0160208091040260200160405190810160405280929190818152602001828054600181600116156101000203166002900480156119255780601f106118fa57610100808354040283529160200191611925565b820191906000526020600020905b81548152906001019060200180831161190857829003601f168201915b5050505050905087565b60008651141561193e57600080fd5b60008551141561194d57600080fd5b60008451141561195c57600080fd5b60008351141561196b57600080fd5b60008251141561197a57600080fd5b60008151141561198957600080fd5b6003600081548092919060010191905055506040518060e00160405280600354815260200187815260200186815260200185815260200184815260200183815260200182815250600760006003548152602001908152602001600020600082015181600001556020820151816001019080519060200190611a0b929190612967565b506040820151816002019080519060200190611a28929190612967565b506060820151816003019080519060200190611a45929190612967565b506080820151816004019080519060200190611a62929190612967565b5060a0820151816005019080519060200190611a7f929190612967565b5060c0820151816006019080519060200190611a9c929190612967565b509050507faf62c3b98e58193e03a7dd3eb968c85ec1f9e8111b20aebfdfaae412588ca4db6003548787878787876040518088815260200180602001806020018060200180602001806020018060200187810387528d818151815260200191508051906020019080838360005b83811015611b24578082015181840152602081019050611b09565b50505050905090810190601f168015611b515780820380516001836020036101000a031916815260200191505b5087810386528c818151815260200191508051906020019080838360005b83811015611b8a578082015181840152602081019050611b6f565b50505050905090810190601f168015611bb75780820380516001836020036101000a031916815260200191505b5087810385528b818151815260200191508051906020019080838360005b83811015611bf0578082015181840152602081019050611bd5565b50505050905090810190601f168015611c1d5780820380516001836020036101000a031916815260200191505b5087810384528a818151815260200191508051906020019080838360005b83811015611c56578082015181840152602081019050611c3b565b50505050905090810190601f168015611c835780820380516001836020036101000a031916815260200191505b50878103835289818151815260200191508051906020019080838360005b83811015611cbc578082015181840152602081019050611ca1565b50505050905090810190601f168015611ce95780820380516001836020036101000a031916815260200191505b50878103825288818151815260200191508051906020019080838360005b83811015611d22578082015181840152602081019050611d07565b50505050905090810190601f168015611d4f5780820380516001836020036101000a031916815260200191505b509d505050505050505050505050505060405180910390a1505050505050565b60025481565b6006602052806000526040600020600091509050806000015490806001018054600181600116156101000203166002900480601f016020809104026020016040519081016040528092919081815260200182805460018160011615610100020316600290048015611e275780601f10611dfc57610100808354040283529160200191611e27565b820191906000526020600020905b815481529060010190602001808311611e0a57829003601f168201915b505050505090806002018054600181600116156101000203166002900480601f016020809104026020016040519081016040528092919081815260200182805460018160011615610100020316600290048015611ec55780601f10611e9a57610100808354040283529160200191611ec5565b820191906000526020600020905b815481529060010190602001808311611ea857829003601f168201915b5050505050905083565b6004602052806000526040600020600091509050806000015490806001018054600181600116156101000203166002900480601f016020809104026020016040519081016040528092919081815260200182805460018160011615610100020316600290048015611f815780601f10611f5657610100808354040283529160200191611f81565b820191906000526020600020905b815481529060010190602001808311611f6457829003601f168201915b505050505090806002018054600181600116156101000203166002900480601f01602080910402602001604051908101604052809291908181526020018280546001816001161561010002031660029004801561201f5780601f10611ff45761010080835404028352916020019161201f565b820191906000526020600020905b81548152906001019060200180831161200257829003601f168201915b505050505090806003018054600181600116156101000203166002900480601f0160208091040260200160405190810160405280929190818152602001828054600181600116156101000203166002900480156120bd5780601f10612092576101008083540402835291602001916120bd565b820191906000526020600020905b8154815290600101906020018083116120a057829003601f168201915b5050505050905084565b6005602052806000526040600020600091509050806000015490806001018054600181600116156101000203166002900480601f0160208091040260200160405190810160405280929190818152602001828054600181600116156101000203166002900480156121795780601f1061214e57610100808354040283529160200191612179565b820191906000526020600020905b81548152906001019060200180831161215c57829003601f168201915b505050505090806002018054600181600116156101000203166002900480601f0160208091040260200160405190810160405280929190818152602001828054600181600116156101000203166002900480156122175780601f106121ec57610100808354040283529160200191612217565b820191906000526020600020905b8154815290600101906020018083116121fa57829003601f168201915b505050505090806003018054600181600116156101000203166002900480601f0160208091040260200160405190810160405280929190818152602001828054600181600116156101000203166002900480156122b55780601f1061228a576101008083540402835291602001916122b5565b820191906000526020600020905b81548152906001019060200180831161229857829003601f168201915b505050505090806004018054600181600116156101000203166002900480601f0160208091040260200160405190810160405280929190818152602001828054600181600116156101000203166002900480156123535780601f1061232857610100808354040283529160200191612353565b820191906000526020600020905b81548152906001019060200180831161233657829003601f168201915b505050505090806005018054600181600116156101000203166002900480601f0160208091040260200160405190810160405280929190818152602001828054600181600116156101000203166002900480156123f15780601f106123c6576101008083540402835291602001916123f1565b820191906000526020600020905b8154815290600101906020018083116123d457829003601f168201915b5050505050905086565b60035481565b60008551141561241057600080fd5b60008451141561241f57600080fd5b60008351141561242e57600080fd5b60008251141561243d57600080fd5b60008151141561244c57600080fd5b6001600081548092919060010191905055506040518060c001604052806001548152602001868152602001858152602001848152602001838152602001828152506005600060015481526020019081526020016000206000820151816000015560208201518160010190805190602001906124c8929190612967565b5060408201518160020190805190602001906124e5929190612967565b506060820151816003019080519060200190612502929190612967565b50608082015181600401908051906020019061251f929190612967565b5060a082015181600501908051906020019061253c929190612967565b509050507fe03e3b2afdb01d4a91c6d6e1cc783f51621119971907e143d633e5e1c73cd1af600154868686868660405180878152602001806020018060200180602001806020018060200186810386528b818151815260200191508051906020019080838360005b838110156125bf5780820151818401526020810190506125a4565b50505050905090810190601f1680156125ec5780820380516001836020036101000a031916815260200191505b5086810385528a818151815260200191508051906020019080838360005b8381101561262557808201518184015260208101905061260a565b50505050905090810190601f1680156126525780820380516001836020036101000a031916815260200191505b50868103845289818151815260200191508051906020019080838360005b8381101561268b578082015181840152602081019050612670565b50505050905090810190601f1680156126b85780820380516001836020036101000a031916815260200191505b50868103835288818151815260200191508051906020019080838360005b838110156126f15780820151818401526020810190506126d6565b50505050905090810190601f16801561271e5780820380516001836020036101000a031916815260200191505b50868103825287818151815260200191508051906020019080838360005b8381101561275757808201518184015260208101905061273c565b50505050905090810190601f1680156127845780820380516001836020036101000a031916815260200191505b509b50505050505050505050505060405180910390a15050505050565b60005481565b6000825114156127b657600080fd5b6000815114156127c557600080fd5b600260008154809291906001019190505550604051806060016040528060025481526020018381526020018281525060066000600254815260200190815260200160002060008201518160000155602082015181600101908051906020019061282f929190612967565b50604082015181600201908051906020019061284c929190612967565b509050507f5b01e239b88a10b4590b527ba0533cd987246d66da49cbb41a05628387fd29416002548383604051808481526020018060200180602001838103835285818151815260200191508051906020019080838360005b838110156128c05780820151818401526020810190506128a5565b50505050905090810190601f1680156128ed5780820380516001836020036101000a031916815260200191505b50838103825284818151815260200191508051906020019080838360005b8381101561292657808201518184015260208101905061290b565b50505050905090810190601f1680156129535780820380516001836020036101000a031916815260200191505b509550505050505060405180910390a15050565b828054600181600116156101000203166002900490600052602060002090601f016020900481019282601f106129a857805160ff19168380011785556129d6565b828001600101855582156129d6579182015b828111156129d55782518255916020019190600101906129ba565b5b5090506129e391906129e7565b5090565b612a0991905b80821115612a055760008160009055506001016129ed565b5090565b9056fea265627a7a72315820e594d585a5dec1b551a2e6318653847fb300229f19b150baa7cb514ad5adc01a64736f6c63430005100032",
  "source": "pragma solidity >=0.4.22 <0.9.0;\r\n\r\ncontract Origin {\r\n\r\n    uint public productCount = 0;\r\n    uint public orderCount = 0;\r\n    uint public certificateCount = 0;\r\n    uint public shipmentCount = 0;\r\n\r\n    mapping (uint => Product) public products; \r\n    mapping (uint => Order) public orders; \r\n    mapping (uint => Certificate) public certificates; \r\n    mapping (uint => Shipment) public shipments; \r\n    //put on the blockchain when inserted into the mapping\r\n\r\n    struct Product {\r\n        uint id;\r\n        string name;\r\n        string image;\r\n        string company;\r\n    }\r\n\r\n    event ProductAdded(\r\n        uint id,\r\n        string name,\r\n        string image,\r\n        string company\r\n    );\r\n   \r\n    function addProduct(string memory _name, string memory _image, string memory _company) public {\r\n        //Require name and company\r\n        require(bytes(_name).length != 0);\r\n        require(bytes(_image).length != 0);\r\n        require(bytes(_company).length != 0);\r\n        //Make sure parameters are correct\r\n        //Increment product count\r\n        productCount++;\r\n        // Add the product\r\n        products[productCount] = Product(productCount, _name,_image, _company);\r\n        //Trigger an event\r\n        emit ProductAdded(productCount, _name, _image, _company);\r\n        // }\r\n    }\r\n\r\n//     function deleteProduct(uint _productId) public returns(bool success) {\r\n//         require(productCount > 0);\r\n//         for(uint256 i =0; i< productCount; i++){\r\n//            if(products[i].id == _productId){\r\n//               products[i] = products[productCount-1];} // pushing last into current arrray index which we gonna delete\r\n//               delete products[productCount-1]; // now deleteing last index\r\n//               productCount--; //total count decrease\r\n//               //emit event\r\n//               return true;\r\n//            }\r\n//        return false;\r\n//    }\r\n\r\n    struct Order {\r\n        uint id;\r\n        string name;\r\n        string quantity;\r\n        string unit;\r\n        string date;\r\n        string account;\r\n    }\r\n\r\n    event OrderAdded(\r\n        uint id,\r\n        string name,\r\n        string quantity,\r\n        string unit,\r\n        string date,\r\n        string account\r\n    );\r\n   \r\n    function addOrder(string memory _name, string memory _quantity, string memory _unit, string memory _date, string memory _account) public {\r\n        //Require name and company\r\n        require(bytes(_name).length != 0);\r\n        require(bytes(_quantity).length != 0);\r\n        require(bytes(_unit).length != 0);\r\n        require(bytes(_date).length != 0);\r\n        require(bytes(_account).length != 0);\r\n        //Make sure parameters are correct\r\n        //Increment product count\r\n        orderCount++;\r\n        // Add the order\r\n        orders[orderCount] = Order(orderCount, _name, _quantity, _unit, _date, _account);\r\n        //Trigger an event\r\n        emit OrderAdded(orderCount, _name, _quantity, _unit, _date, _account);\r\n        // }\r\n    }   \r\n \r\n    struct Certificate {\r\n        uint id;\r\n        string name;\r\n        string file;\r\n    }\r\n\r\n    event CertificateAdded(\r\n        uint id,\r\n        string name,\r\n        string file\r\n\r\n    );\r\n   \r\n    function addCertificate(string memory _name, string memory _file) public {\r\n        require(bytes(_name).length != 0);\r\n        require(bytes(_file).length != 0);\r\n        certificateCount++;\r\n        certificates[certificateCount] = Certificate(certificateCount, _name, _file);\r\n        emit CertificateAdded(certificateCount, _name, _file);\r\n        // }\r\n    }   \r\n\r\n    struct Shipment {\r\n        uint id;\r\n        string shipType;\r\n        string place;\r\n        string latitude;\r\n        string longitude;\r\n        string date;\r\n        string account;\r\n    }\r\n\r\n    event ShipmentAdded(\r\n        uint id,\r\n        string shipType,\r\n        string place,\r\n        string latitude,\r\n        string longitude,\r\n        string date,\r\n        string account\r\n    );\r\n   \r\n    function addShipment(string memory _shipType, string memory _place,  string memory _latitude, string memory _longitude, string memory _date, string memory _account) public {\r\n        require(bytes(_shipType).length != 0);\r\n        require(bytes(_place).length != 0);\r\n        require(bytes(_latitude).length != 0);\r\n        require(bytes(_longitude).length != 0);\r\n        require(bytes(_date).length != 0);\r\n        require(bytes(_account).length != 0);\r\n        shipmentCount++;\r\n        shipments[shipmentCount] = Shipment(shipmentCount, _shipType, _place, _latitude, _longitude, _date, _account);\r\n        emit ShipmentAdded(shipmentCount, _shipType, _place, _latitude, _longitude, _date, _account);\r\n        // }\r\n    }   \r\n    \r\n}",
  "sourcePath": "C:/Users/Okay/Desktop/dapp start/contracts/Origin.sol",
  "compiler": {
    "name": "solc",
    "version": "0.5.16+commit.9c3226ce.Emscripten.clang"
  },
  "schemaVersion": "3.4.1",
  "updatedAt": "2022-03-05T20:30:00.626Z",
  "networkType": "ethereum",
  "devdoc": {
    "methods": {}
  },
  "userdoc": {
    "methods": {}
  }
}