{
  "contractName": "Origin",
  "abi": [
    {
      "anonymous": false,
      "inputs": [
        {
          "indexed": false,
          "internalType": "uint256",
          "name": "id",
          "type": "uint256"
        },
        {
          "indexed": false,
          "internalType": "string",
          "name": "name",
          "type": "string"
        },
        {
          "indexed": false,
          "internalType": "string",
          "name": "file",
          "type": "string"
        }
      ],
      "name": "CertificateAdded",
      "type": "event"
    },
    {
      "anonymous": false,
      "inputs": [
        {
          "indexed": false,
          "internalType": "uint256",
          "name": "id",
          "type": "uint256"
        },
        {
          "indexed": false,
          "internalType": "string",
          "name": "name",
          "type": "string"
        },
        {
          "indexed": false,
          "internalType": "string",
          "name": "quantity",
          "type": "string"
        },
        {
          "indexed": false,
          "internalType": "string",
          "name": "unit",
          "type": "string"
        },
        {
          "indexed": false,
          "internalType": "string",
          "name": "date",
          "type": "string"
        }
      ],
      "name": "OrderAdded",
      "type": "event"
    },
    {
      "anonymous": false,
      "inputs": [
        {
          "indexed": false,
          "internalType": "uint256",
          "name": "id",
          "type": "uint256"
        },
        {
          "indexed": false,
          "internalType": "string",
          "name": "name",
          "type": "string"
        },
        {
          "indexed": false,
          "internalType": "string",
          "name": "image",
          "type": "string"
        },
        {
          "indexed": false,
          "internalType": "string",
          "name": "company",
          "type": "string"
        }
      ],
      "name": "ProductAdded",
      "type": "event"
    },
    {
      "anonymous": false,
      "inputs": [
        {
          "indexed": false,
          "internalType": "uint256",
          "name": "id",
          "type": "uint256"
        },
        {
          "indexed": false,
          "internalType": "string",
          "name": "shipType",
          "type": "string"
        },
        {
          "indexed": false,
          "internalType": "string",
          "name": "place",
          "type": "string"
        },
        {
          "indexed": false,
          "internalType": "string",
          "name": "latitude",
          "type": "string"
        },
        {
          "indexed": false,
          "internalType": "string",
          "name": "longitude",
          "type": "string"
        },
        {
          "indexed": false,
          "internalType": "string",
          "name": "date",
          "type": "string"
        }
      ],
      "name": "ShipmentAdded",
      "type": "event"
    },
    {
      "constant": true,
      "inputs": [],
      "name": "certificateCount",
      "outputs": [
        {
          "internalType": "uint256",
          "name": "",
          "type": "uint256"
        }
      ],
      "payable": false,
      "stateMutability": "view",
      "type": "function"
    },
    {
      "constant": true,
      "inputs": [
        {
          "internalType": "uint256",
          "name": "",
          "type": "uint256"
        }
      ],
      "name": "certificates",
      "outputs": [
        {
          "internalType": "uint256",
          "name": "id",
          "type": "uint256"
        },
        {
          "internalType": "string",
          "name": "name",
          "type": "string"
        },
        {
          "internalType": "string",
          "name": "file",
          "type": "string"
        }
      ],
      "payable": false,
      "stateMutability": "view",
      "type": "function"
    },
    {
      "constant": true,
      "inputs": [],
      "name": "orderCount",
      "outputs": [
        {
          "internalType": "uint256",
          "name": "",
          "type": "uint256"
        }
      ],
      "payable": false,
      "stateMutability": "view",
      "type": "function"
    },
    {
      "constant": true,
      "inputs": [
        {
          "internalType": "uint256",
          "name": "",
          "type": "uint256"
        }
      ],
      "name": "orders",
      "outputs": [
        {
          "internalType": "uint256",
          "name": "id",
          "type": "uint256"
        },
        {
          "internalType": "string",
          "name": "name",
          "type": "string"
        },
        {
          "internalType": "string",
          "name": "quantity",
          "type": "string"
        },
        {
          "internalType": "string",
          "name": "unit",
          "type": "string"
        },
        {
          "internalType": "string",
          "name": "date",
          "type": "string"
        }
      ],
      "payable": false,
      "stateMutability": "view",
      "type": "function"
    },
    {
      "constant": true,
      "inputs": [],
      "name": "productCount",
      "outputs": [
        {
          "internalType": "uint256",
          "name": "",
          "type": "uint256"
        }
      ],
      "payable": false,
      "stateMutability": "view",
      "type": "function"
    },
    {
      "constant": true,
      "inputs": [
        {
          "internalType": "uint256",
          "name": "",
          "type": "uint256"
        }
      ],
      "name": "products",
      "outputs": [
        {
          "internalType": "uint256",
          "name": "id",
          "type": "uint256"
        },
        {
          "internalType": "string",
          "name": "name",
          "type": "string"
        },
        {
          "internalType": "string",
          "name": "image",
          "type": "string"
        },
        {
          "internalType": "string",
          "name": "company",
          "type": "string"
        }
      ],
      "payable": false,
      "stateMutability": "view",
      "type": "function"
    },
    {
      "constant": true,
      "inputs": [],
      "name": "shipmentCount",
      "outputs": [
        {
          "internalType": "uint256",
          "name": "",
          "type": "uint256"
        }
      ],
      "payable": false,
      "stateMutability": "view",
      "type": "function"
    },
    {
      "constant": true,
      "inputs": [
        {
          "internalType": "uint256",
          "name": "",
          "type": "uint256"
        }
      ],
      "name": "shipments",
      "outputs": [
        {
          "internalType": "uint256",
          "name": "id",
          "type": "uint256"
        },
        {
          "internalType": "string",
          "name": "shipType",
          "type": "string"
        },
        {
          "internalType": "string",
          "name": "place",
          "type": "string"
        },
        {
          "internalType": "string",
          "name": "latitude",
          "type": "string"
        },
        {
          "internalType": "string",
          "name": "longitude",
          "type": "string"
        },
        {
          "internalType": "string",
          "name": "date",
          "type": "string"
        }
      ],
      "payable": false,
      "stateMutability": "view",
      "type": "function"
    },
    {
      "constant": false,
      "inputs": [
        {
          "internalType": "string",
          "name": "_name",
          "type": "string"
        },
        {
          "internalType": "string",
          "name": "_image",
          "type": "string"
        },
        {
          "internalType": "string",
          "name": "_company",
          "type": "string"
        }
      ],
      "name": "addProduct",
      "outputs": [],
      "payable": false,
      "stateMutability": "nonpayable",
      "type": "function"
    },
    {
      "constant": false,
      "inputs": [
        {
          "internalType": "string",
          "name": "_name",
          "type": "string"
        },
        {
          "internalType": "string",
          "name": "_quantity",
          "type": "string"
        },
        {
          "internalType": "string",
          "name": "_unit",
          "type": "string"
        },
        {
          "internalType": "string",
          "name": "_date",
          "type": "string"
        }
      ],
      "name": "addOrder",
      "outputs": [],
      "payable": false,
      "stateMutability": "nonpayable",
      "type": "function"
    },
    {
      "constant": false,
      "inputs": [
        {
          "internalType": "string",
          "name": "_name",
          "type": "string"
        },
        {
          "internalType": "string",
          "name": "_file",
          "type": "string"
        }
      ],
      "name": "addCertificate",
      "outputs": [],
      "payable": false,
      "stateMutability": "nonpayable",
      "type": "function"
    },
    {
      "constant": false,
      "inputs": [
        {
          "internalType": "string",
          "name": "_shipType",
          "type": "string"
        },
        {
          "internalType": "string",
          "name": "_place",
          "type": "string"
        },
        {
          "internalType": "string",
          "name": "_latitude",
          "type": "string"
        },
        {
          "internalType": "string",
          "name": "_longitude",
          "type": "string"
        },
        {
          "internalType": "string",
          "name": "_date",
          "type": "string"
        }
      ],
      "name": "addShipment",
      "outputs": [],
      "payable": false,
      "stateMutability": "nonpayable",
      "type": "function"
    }
  ],
  "bytecode": "0x60806040526000805560006001556000600255600060035534801561002357600080fd5b506125bf806100336000396000f3fe608060405234801561001057600080fd5b50600436106100b45760003560e01c80637acc0b20116100715780637acc0b201461096d578063a85c38ef14610af3578063aace20b714610ce5578063b90c278114610d03578063e0f6ef8714610f83578063e24f2ce714610fa1576100b4565b80630e34b00e146100b95780632453ffa8146102a25780632ac08a93146102c057806350b09f331461051e57806352d7b89c14610835578063663b3e2214610853575b600080fd5b6102a0600480360360608110156100cf57600080fd5b81019080803590602001906401000000008111156100ec57600080fd5b8201836020820111156100fe57600080fd5b8035906020019184600183028401116401000000008311171561012057600080fd5b91908080601f016020809104026020016040519081016040528093929190818152602001838380828437600081840152601f19601f8201169050808301925050505050505091929192908035906020019064010000000081111561018357600080fd5b82018360208201111561019557600080fd5b803590602001918460018302840111640100000000831117156101b757600080fd5b91908080601f016020809104026020016040519081016040528093929190818152602001838380828437600081840152601f19601f8201169050808301925050505050505091929192908035906020019064010000000081111561021a57600080fd5b82018360208201111561022c57600080fd5b8035906020019184600183028401116401000000008311171561024e57600080fd5b91908080601f016020809104026020016040519081016040528093929190818152602001838380828437600081840152601f19601f8201169050808301925050505050505091929192905050506110f3565b005b6102aa611351565b6040518082815260200191505060405180910390f35b6102ec600480360360208110156102d657600080fd5b8101908080359060200190929190505050611357565b60405180878152602001806020018060200180602001806020018060200186810386528b818151815260200191508051906020019080838360005b83811015610342578082015181840152602081019050610327565b50505050905090810190601f16801561036f5780820380516001836020036101000a031916815260200191505b5086810385528a818151815260200191508051906020019080838360005b838110156103a857808201518184015260208101905061038d565b50505050905090810190601f1680156103d55780820380516001836020036101000a031916815260200191505b50868103845289818151815260200191508051906020019080838360005b8381101561040e5780820151818401526020810190506103f3565b50505050905090810190601f16801561043b5780820380516001836020036101000a031916815260200191505b50868103835288818151815260200191508051906020019080838360005b83811015610474578082015181840152602081019050610459565b50505050905090810190601f1680156104a15780820380516001836020036101000a031916815260200191505b50868103825287818151815260200191508051906020019080838360005b838110156104da5780820151818401526020810190506104bf565b50505050905090810190601f1680156105075780820380516001836020036101000a031916815260200191505b509b50505050505050505050505060405180910390f35b610833600480360360a081101561053457600080fd5b810190808035906020019064010000000081111561055157600080fd5b82018360208201111561056357600080fd5b8035906020019184600183028401116401000000008311171561058557600080fd5b91908080601f016020809104026020016040519081016040528093929190818152602001838380828437600081840152601f19601f820116905080830192505050505050509192919290803590602001906401000000008111156105e857600080fd5b8201836020820111156105fa57600080fd5b8035906020019184600183028401116401000000008311171561061c57600080fd5b91908080601f016020809104026020016040519081016040528093929190818152602001838380828437600081840152601f19601f8201169050808301925050505050505091929192908035906020019064010000000081111561067f57600080fd5b82018360208201111561069157600080fd5b803590602001918460018302840111640100000000831117156106b357600080fd5b91908080601f016020809104026020016040519081016040528093929190818152602001838380828437600081840152601f19601f8201169050808301925050505050505091929192908035906020019064010000000081111561071657600080fd5b82018360208201111561072857600080fd5b8035906020019184600183028401116401000000008311171561074a57600080fd5b91908080601f016020809104026020016040519081016040528093929190818152602001838380828437600081840152601f19601f820116905080830192505050505050509192919290803590602001906401000000008111156107ad57600080fd5b8201836020820111156107bf57600080fd5b803590602001918460018302840111640100000000831117156107e157600080fd5b91908080601f016020809104026020016040519081016040528093929190818152602001838380828437600081840152601f19601f82011690508083019250505050505050919291929050505061168b565b005b61083d611a2b565b6040518082815260200191505060405180910390f35b61087f6004803603602081101561086957600080fd5b8101908080359060200190929190505050611a31565b604051808481526020018060200180602001838103835285818151815260200191508051906020019080838360005b838110156108c95780820151818401526020810190506108ae565b50505050905090810190601f1680156108f65780820380516001836020036101000a031916815260200191505b50838103825284818151815260200191508051906020019080838360005b8381101561092f578082015181840152602081019050610914565b50505050905090810190601f16801561095c5780820380516001836020036101000a031916815260200191505b509550505050505060405180910390f35b6109996004803603602081101561098357600080fd5b8101908080359060200190929190505050611b8b565b60405180858152602001806020018060200180602001848103845287818151815260200191508051906020019080838360005b838110156109e75780820151818401526020810190506109cc565b50505050905090810190601f168015610a145780820380516001836020036101000a031916815260200191505b50848103835286818151815260200191508051906020019080838360005b83811015610a4d578082015181840152602081019050610a32565b50505050905090810190601f168015610a7a5780820380516001836020036101000a031916815260200191505b50848103825285818151815260200191508051906020019080838360005b83811015610ab3578082015181840152602081019050610a98565b50505050905090810190601f168015610ae05780820380516001836020036101000a031916815260200191505b5097505050505050505060405180910390f35b610b1f60048036036020811015610b0957600080fd5b8101908080359060200190929190505050611d83565b6040518086815260200180602001806020018060200180602001858103855289818151815260200191508051906020019080838360005b83811015610b71578082015181840152602081019050610b56565b50505050905090810190601f168015610b9e5780820380516001836020036101000a031916815260200191505b50858103845288818151815260200191508051906020019080838360005b83811015610bd7578082015181840152602081019050610bbc565b50505050905090810190601f168015610c045780820380516001836020036101000a031916815260200191505b50858103835287818151815260200191508051906020019080838360005b83811015610c3d578082015181840152602081019050610c22565b50505050905090810190601f168015610c6a5780820380516001836020036101000a031916815260200191505b50858103825286818151815260200191508051906020019080838360005b83811015610ca3578082015181840152602081019050610c88565b50505050905090810190601f168015610cd05780820380516001836020036101000a031916815260200191505b50995050505050505050505060405180910390f35b610ced612019565b6040518082815260200191505060405180910390f35b610f8160048036036080811015610d1957600080fd5b8101908080359060200190640100000000811115610d3657600080fd5b820183602082011115610d4857600080fd5b80359060200191846001830284011164010000000083111715610d6a57600080fd5b91908080601f016020809104026020016040519081016040528093929190818152602001838380828437600081840152601f19601f82011690508083019250505050505050919291929080359060200190640100000000811115610dcd57600080fd5b820183602082011115610ddf57600080fd5b80359060200191846001830284011164010000000083111715610e0157600080fd5b91908080601f016020809104026020016040519081016040528093929190818152602001838380828437600081840152601f19601f82011690508083019250505050505050919291929080359060200190640100000000811115610e6457600080fd5b820183602082011115610e7657600080fd5b80359060200191846001830284011164010000000083111715610e9857600080fd5b91908080601f016020809104026020016040519081016040528093929190818152602001838380828437600081840152601f19601f82011690508083019250505050505050919291929080359060200190640100000000811115610efb57600080fd5b820183602082011115610f0d57600080fd5b80359060200191846001830284011164010000000083111715610f2f57600080fd5b91908080601f016020809104026020016040519081016040528093929190818152602001838380828437600081840152601f19601f82011690508083019250505050505050919291929050505061201f565b005b610f8b61231f565b6040518082815260200191505060405180910390f35b6110f160048036036040811015610fb757600080fd5b8101908080359060200190640100000000811115610fd457600080fd5b820183602082011115610fe657600080fd5b8035906020019184600183028401116401000000008311171561100857600080fd5b91908080601f016020809104026020016040519081016040528093929190818152602001838380828437600081840152601f19601f8201169050808301925050505050505091929192908035906020019064010000000081111561106b57600080fd5b82018360208201111561107d57600080fd5b8035906020019184600183028401116401000000008311171561109f57600080fd5b91908080601f016020809104026020016040519081016040528093929190818152602001838380828437600081840152601f19601f820116905080830192505050505050509192919290505050612325565b005b60008351141561110257600080fd5b60008251141561111157600080fd5b60008151141561112057600080fd5b60008081548092919060010191905055506040518060800160405280600054815260200184815260200183815260200182815250600460008054815260200190815260200160002060008201518160000155602082015181600101908051906020019061118e9291906124e5565b5060408201518160020190805190602001906111ab9291906124e5565b5060608201518160030190805190602001906111c89291906124e5565b509050507f2ad97e35e5231a127d0d7b6cd0aa552ec47d312eff0ef74961fb06c5ae92688460005484848460405180858152602001806020018060200180602001848103845287818151815260200191508051906020019080838360005b83811015611241578082015181840152602081019050611226565b50505050905090810190601f16801561126e5780820380516001836020036101000a031916815260200191505b50848103835286818151815260200191508051906020019080838360005b838110156112a757808201518184015260208101905061128c565b50505050905090810190601f1680156112d45780820380516001836020036101000a031916815260200191505b50848103825285818151815260200191508051906020019080838360005b8381101561130d5780820151818401526020810190506112f2565b50505050905090810190601f16801561133a5780820380516001836020036101000a031916815260200191505b5097505050505050505060405180910390a1505050565b60015481565b6007602052806000526040600020600091509050806000015490806001018054600181600116156101000203166002900480601f0160208091040260200160405190810160405280929190818152602001828054600181600116156101000203166002900480156114095780601f106113de57610100808354040283529160200191611409565b820191906000526020600020905b8154815290600101906020018083116113ec57829003601f168201915b505050505090806002018054600181600116156101000203166002900480601f0160208091040260200160405190810160405280929190818152602001828054600181600116156101000203166002900480156114a75780601f1061147c576101008083540402835291602001916114a7565b820191906000526020600020905b81548152906001019060200180831161148a57829003601f168201915b505050505090806003018054600181600116156101000203166002900480601f0160208091040260200160405190810160405280929190818152602001828054600181600116156101000203166002900480156115455780601f1061151a57610100808354040283529160200191611545565b820191906000526020600020905b81548152906001019060200180831161152857829003601f168201915b505050505090806004018054600181600116156101000203166002900480601f0160208091040260200160405190810160405280929190818152602001828054600181600116156101000203166002900480156115e35780601f106115b8576101008083540402835291602001916115e3565b820191906000526020600020905b8154815290600101906020018083116115c657829003601f168201915b505050505090806005018054600181600116156101000203166002900480601f0160208091040260200160405190810160405280929190818152602001828054600181600116156101000203166002900480156116815780601f1061165657610100808354040283529160200191611681565b820191906000526020600020905b81548152906001019060200180831161166457829003601f168201915b5050505050905086565b60008551141561169a57600080fd5b6000845114156116a957600080fd5b6000835114156116b857600080fd5b6000825114156116c757600080fd5b6000815114156116d657600080fd5b6003600081548092919060010191905055506040518060c001604052806003548152602001868152602001858152602001848152602001838152602001828152506007600060035481526020019081526020016000206000820151816000015560208201518160010190805190602001906117529291906124e5565b50604082015181600201908051906020019061176f9291906124e5565b50606082015181600301908051906020019061178c9291906124e5565b5060808201518160040190805190602001906117a99291906124e5565b5060a08201518160050190805190602001906117c69291906124e5565b509050507f7f49f1023b167e885d4c789743293378487d23c3b42656a3fc68aa3e144f4047600354868686868660405180878152602001806020018060200180602001806020018060200186810386528b818151815260200191508051906020019080838360005b8381101561184957808201518184015260208101905061182e565b50505050905090810190601f1680156118765780820380516001836020036101000a031916815260200191505b5086810385528a818151815260200191508051906020019080838360005b838110156118af578082015181840152602081019050611894565b50505050905090810190601f1680156118dc5780820380516001836020036101000a031916815260200191505b50868103845289818151815260200191508051906020019080838360005b838110156119155780820151818401526020810190506118fa565b50505050905090810190601f1680156119425780820380516001836020036101000a031916815260200191505b50868103835288818151815260200191508051906020019080838360005b8381101561197b578082015181840152602081019050611960565b50505050905090810190601f1680156119a85780820380516001836020036101000a031916815260200191505b50868103825287818151815260200191508051906020019080838360005b838110156119e15780820151818401526020810190506119c6565b50505050905090810190601f168015611a0e5780820380516001836020036101000a031916815260200191505b509b50505050505050505050505060405180910390a15050505050565b60025481565b6006602052806000526040600020600091509050806000015490806001018054600181600116156101000203166002900480601f016020809104026020016040519081016040528092919081815260200182805460018160011615610100020316600290048015611ae35780601f10611ab857610100808354040283529160200191611ae3565b820191906000526020600020905b815481529060010190602001808311611ac657829003601f168201915b505050505090806002018054600181600116156101000203166002900480601f016020809104026020016040519081016040528092919081815260200182805460018160011615610100020316600290048015611b815780601f10611b5657610100808354040283529160200191611b81565b820191906000526020600020905b815481529060010190602001808311611b6457829003601f168201915b5050505050905083565b6004602052806000526040600020600091509050806000015490806001018054600181600116156101000203166002900480601f016020809104026020016040519081016040528092919081815260200182805460018160011615610100020316600290048015611c3d5780601f10611c1257610100808354040283529160200191611c3d565b820191906000526020600020905b815481529060010190602001808311611c2057829003601f168201915b505050505090806002018054600181600116156101000203166002900480601f016020809104026020016040519081016040528092919081815260200182805460018160011615610100020316600290048015611cdb5780601f10611cb057610100808354040283529160200191611cdb565b820191906000526020600020905b815481529060010190602001808311611cbe57829003601f168201915b505050505090806003018054600181600116156101000203166002900480601f016020809104026020016040519081016040528092919081815260200182805460018160011615610100020316600290048015611d795780601f10611d4e57610100808354040283529160200191611d79565b820191906000526020600020905b815481529060010190602001808311611d5c57829003601f168201915b5050505050905084565b6005602052806000526040600020600091509050806000015490806001018054600181600116156101000203166002900480601f016020809104026020016040519081016040528092919081815260200182805460018160011615610100020316600290048015611e355780601f10611e0a57610100808354040283529160200191611e35565b820191906000526020600020905b815481529060010190602001808311611e1857829003601f168201915b505050505090806002018054600181600116156101000203166002900480601f016020809104026020016040519081016040528092919081815260200182805460018160011615610100020316600290048015611ed35780601f10611ea857610100808354040283529160200191611ed3565b820191906000526020600020905b815481529060010190602001808311611eb657829003601f168201915b505050505090806003018054600181600116156101000203166002900480601f016020809104026020016040519081016040528092919081815260200182805460018160011615610100020316600290048015611f715780601f10611f4657610100808354040283529160200191611f71565b820191906000526020600020905b815481529060010190602001808311611f5457829003601f168201915b505050505090806004018054600181600116156101000203166002900480601f01602080910402602001604051908101604052809291908181526020018280546001816001161561010002031660029004801561200f5780601f10611fe45761010080835404028352916020019161200f565b820191906000526020600020905b815481529060010190602001808311611ff257829003601f168201915b5050505050905085565b60035481565b60008451141561202e57600080fd5b60008351141561203d57600080fd5b60008251141561204c57600080fd5b60008151141561205b57600080fd5b6001600081548092919060010191905055506040518060a001604052806001548152602001858152602001848152602001838152602001828152506005600060015481526020019081526020016000206000820151816000015560208201518160010190805190602001906120d19291906124e5565b5060408201518160020190805190602001906120ee9291906124e5565b50606082015181600301908051906020019061210b9291906124e5565b5060808201518160040190805190602001906121289291906124e5565b509050507feefc63ba61f42869369f34e040ffbdbb64f897318fbd72a3db7c8ec32f33cabf600154858585856040518086815260200180602001806020018060200180602001858103855289818151815260200191508051906020019080838360005b838110156121a657808201518184015260208101905061218b565b50505050905090810190601f1680156121d35780820380516001836020036101000a031916815260200191505b50858103845288818151815260200191508051906020019080838360005b8381101561220c5780820151818401526020810190506121f1565b50505050905090810190601f1680156122395780820380516001836020036101000a031916815260200191505b50858103835287818151815260200191508051906020019080838360005b83811015612272578082015181840152602081019050612257565b50505050905090810190601f16801561229f5780820380516001836020036101000a031916815260200191505b50858103825286818151815260200191508051906020019080838360005b838110156122d85780820151818401526020810190506122bd565b50505050905090810190601f1680156123055780820380516001836020036101000a031916815260200191505b50995050505050505050505060405180910390a150505050565b60005481565b60008251141561233457600080fd5b60008151141561234357600080fd5b60026000815480929190600101919050555060405180606001604052806002548152602001838152602001828152506006600060025481526020019081526020016000206000820151816000015560208201518160010190805190602001906123ad9291906124e5565b5060408201518160020190805190602001906123ca9291906124e5565b509050507f5b01e239b88a10b4590b527ba0533cd987246d66da49cbb41a05628387fd29416002548383604051808481526020018060200180602001838103835285818151815260200191508051906020019080838360005b8381101561243e578082015181840152602081019050612423565b50505050905090810190601f16801561246b5780820380516001836020036101000a031916815260200191505b50838103825284818151815260200191508051906020019080838360005b838110156124a4578082015181840152602081019050612489565b50505050905090810190601f1680156124d15780820380516001836020036101000a031916815260200191505b509550505050505060405180910390a15050565b828054600181600116156101000203166002900490600052602060002090601f016020900481019282601f1061252657805160ff1916838001178555612554565b82800160010185558215612554579182015b82811115612553578251825591602001919060010190612538565b5b5090506125619190612565565b5090565b61258791905b8082111561258357600081600090555060010161256b565b5090565b9056fea265627a7a72315820b01e4f2d9d654a76118bb424251abafbb1c04330b4a83c9980993e6dcb9b4fcb64736f6c63430005100032",
  "source": "pragma solidity >=0.4.22 <0.9.0;\r\n\r\ncontract Origin {\r\n\r\n    uint public productCount = 0;\r\n    uint public orderCount = 0;\r\n    uint public certificateCount = 0;\r\n    uint public shipmentCount = 0;\r\n\r\n    mapping (uint => Product) public products; \r\n    mapping (uint => Order) public orders; \r\n    mapping (uint => Certificate) public certificates; \r\n    mapping (uint => Shipment) public shipments; \r\n    //put on the blockchain when inserted into the mapping\r\n\r\n    struct Product {\r\n        uint id;\r\n        string name;\r\n        string image;\r\n        string company;\r\n    }\r\n\r\n    event ProductAdded(\r\n        uint id,\r\n        string name,\r\n        string image,\r\n        string company\r\n    );\r\n   \r\n    function addProduct(string memory _name, string memory _image, string memory _company) public {\r\n        //Require name and company\r\n        require(bytes(_name).length != 0);\r\n        require(bytes(_image).length != 0);\r\n        require(bytes(_company).length != 0);\r\n        //Make sure parameters are correct\r\n        //Increment product count\r\n        productCount++;\r\n        // Add the product\r\n        products[productCount] = Product(productCount, _name,_image, _company);\r\n        //Trigger an event\r\n        emit ProductAdded(productCount, _name, _image, _company);\r\n        // }\r\n    }\r\n\r\n//     function deleteProduct(uint _productId) public returns(bool success) {\r\n//         require(productCount > 0);\r\n//         for(uint256 i =0; i< productCount; i++){\r\n//            if(products[i].id == _productId){\r\n//               products[i] = products[productCount-1];} // pushing last into current arrray index which we gonna delete\r\n//               delete products[productCount-1]; // now deleteing last index\r\n//               productCount--; //total count decrease\r\n//               //emit event\r\n//               return true;\r\n//            }\r\n//        return false;\r\n//    }\r\n\r\n    struct Order {\r\n        uint id;\r\n        string name;\r\n        string quantity;\r\n        string unit;\r\n        string date;\r\n    }\r\n\r\n    event OrderAdded(\r\n        uint id,\r\n        string name,\r\n        string quantity,\r\n        string unit,\r\n        string date\r\n    );\r\n   \r\n    function addOrder(string memory _name, string memory _quantity, string memory _unit, string memory _date) public {\r\n        //Require name and company\r\n        require(bytes(_name).length != 0);\r\n        require(bytes(_quantity).length != 0);\r\n        require(bytes(_unit).length != 0);\r\n        require(bytes(_date).length != 0);\r\n        //Make sure parameters are correct\r\n        //Increment product count\r\n        orderCount++;\r\n        // Add the order\r\n        orders[orderCount] = Order(orderCount, _name, _quantity, _unit, _date);\r\n        //Trigger an event\r\n        emit OrderAdded(orderCount, _name, _quantity, _unit, _date);\r\n        // }\r\n    }   \r\n \r\n    struct Certificate {\r\n        uint id;\r\n        string name;\r\n        string file;\r\n    }\r\n\r\n    event CertificateAdded(\r\n        uint id,\r\n        string name,\r\n        string file\r\n    );\r\n   \r\n    function addCertificate(string memory _name, string memory _file) public {\r\n        require(bytes(_name).length != 0);\r\n        require(bytes(_file).length != 0);\r\n        certificateCount++;\r\n        certificates[certificateCount] = Certificate(certificateCount, _name, _file);\r\n        emit CertificateAdded(certificateCount, _name, _file);\r\n        // }\r\n    }   \r\n\r\n    struct Shipment {\r\n        uint id;\r\n        string shipType;\r\n        string place;\r\n        string latitude;\r\n        string longitude;\r\n        string date;\r\n    }\r\n\r\n    event ShipmentAdded(\r\n        uint id,\r\n        string shipType,\r\n        string place,\r\n        string latitude,\r\n        string longitude,\r\n        string date\r\n    );\r\n   \r\n    function addShipment(string memory _shipType, string memory _place,  string memory _latitude, string memory _longitude, string memory _date) public {\r\n        require(bytes(_shipType).length != 0);\r\n        require(bytes(_place).length != 0);\r\n        require(bytes(_latitude).length != 0);\r\n        require(bytes(_longitude).length != 0);\r\n        require(bytes(_date).length != 0);\r\n        shipmentCount++;\r\n        shipments[shipmentCount] = Shipment(shipmentCount, _shipType, _place, _latitude, _longitude, _date);\r\n        emit ShipmentAdded(shipmentCount, _shipType, _place, _latitude, _longitude, _date);\r\n        // }\r\n    }   \r\n    \r\n}",
  "sourcePath": "C:/Users/Okay/Desktop/dapp start/contracts/Origin.sol",
  "compiler": {
    "name": "solc",
    "version": "0.5.16+commit.9c3226ce.Emscripten.clang"
  },
  "schemaVersion": "3.4.1",
  "updatedAt": "2022-02-21T15:42:07.952Z",
  "networkType": "ethereum",
  "devdoc": {
    "methods": {}
  },
  "userdoc": {
    "methods": {}
  }
}