{
  "contractName": "Origin",
  "abi": [
    {
      "anonymous": false,
      "inputs": [
        {
          "indexed": false,
          "internalType": "uint256",
          "name": "id",
          "type": "uint256"
        },
        {
          "indexed": false,
          "internalType": "string",
          "name": "name",
          "type": "string"
        },
        {
          "indexed": false,
          "internalType": "string",
          "name": "file",
          "type": "string"
        },
        {
          "indexed": false,
          "internalType": "string",
          "name": "date",
          "type": "string"
        },
        {
          "indexed": false,
          "internalType": "address",
          "name": "account",
          "type": "address"
        }
      ],
      "name": "CertificateAdded",
      "type": "event"
    },
    {
      "anonymous": false,
      "inputs": [
        {
          "indexed": false,
          "internalType": "uint256",
          "name": "id",
          "type": "uint256"
        },
        {
          "indexed": false,
          "internalType": "string",
          "name": "name",
          "type": "string"
        },
        {
          "indexed": false,
          "internalType": "string",
          "name": "quantity",
          "type": "string"
        },
        {
          "indexed": false,
          "internalType": "string",
          "name": "unit",
          "type": "string"
        },
        {
          "indexed": false,
          "internalType": "string",
          "name": "date",
          "type": "string"
        },
        {
          "indexed": false,
          "internalType": "address",
          "name": "account",
          "type": "address"
        }
      ],
      "name": "OrderAdded",
      "type": "event"
    },
    {
      "anonymous": false,
      "inputs": [
        {
          "indexed": false,
          "internalType": "uint256",
          "name": "id",
          "type": "uint256"
        },
        {
          "indexed": false,
          "internalType": "string",
          "name": "name",
          "type": "string"
        },
        {
          "indexed": false,
          "internalType": "string",
          "name": "image",
          "type": "string"
        },
        {
          "indexed": false,
          "internalType": "string",
          "name": "company",
          "type": "string"
        },
        {
          "indexed": false,
          "internalType": "string",
          "name": "date",
          "type": "string"
        },
        {
          "indexed": false,
          "internalType": "address",
          "name": "account",
          "type": "address"
        }
      ],
      "name": "ProductAdded",
      "type": "event"
    },
    {
      "anonymous": false,
      "inputs": [
        {
          "indexed": false,
          "internalType": "uint256",
          "name": "id",
          "type": "uint256"
        },
        {
          "indexed": false,
          "internalType": "string",
          "name": "shipType",
          "type": "string"
        },
        {
          "indexed": false,
          "internalType": "string",
          "name": "place",
          "type": "string"
        },
        {
          "indexed": false,
          "internalType": "string",
          "name": "latitude",
          "type": "string"
        },
        {
          "indexed": false,
          "internalType": "string",
          "name": "longitude",
          "type": "string"
        },
        {
          "indexed": false,
          "internalType": "string",
          "name": "date",
          "type": "string"
        },
        {
          "indexed": false,
          "internalType": "address",
          "name": "account",
          "type": "address"
        }
      ],
      "name": "ShipmentAdded",
      "type": "event"
    },
    {
      "constant": true,
      "inputs": [],
      "name": "certificateCount",
      "outputs": [
        {
          "internalType": "uint256",
          "name": "",
          "type": "uint256"
        }
      ],
      "payable": false,
      "stateMutability": "view",
      "type": "function"
    },
    {
      "constant": true,
      "inputs": [
        {
          "internalType": "uint256",
          "name": "",
          "type": "uint256"
        }
      ],
      "name": "certificates",
      "outputs": [
        {
          "internalType": "uint256",
          "name": "id",
          "type": "uint256"
        },
        {
          "internalType": "string",
          "name": "name",
          "type": "string"
        },
        {
          "internalType": "string",
          "name": "file",
          "type": "string"
        },
        {
          "internalType": "string",
          "name": "date",
          "type": "string"
        },
        {
          "internalType": "address",
          "name": "account",
          "type": "address"
        }
      ],
      "payable": false,
      "stateMutability": "view",
      "type": "function"
    },
    {
      "constant": true,
      "inputs": [],
      "name": "orderCount",
      "outputs": [
        {
          "internalType": "uint256",
          "name": "",
          "type": "uint256"
        }
      ],
      "payable": false,
      "stateMutability": "view",
      "type": "function"
    },
    {
      "constant": true,
      "inputs": [
        {
          "internalType": "uint256",
          "name": "",
          "type": "uint256"
        }
      ],
      "name": "orders",
      "outputs": [
        {
          "internalType": "uint256",
          "name": "id",
          "type": "uint256"
        },
        {
          "internalType": "string",
          "name": "name",
          "type": "string"
        },
        {
          "internalType": "string",
          "name": "quantity",
          "type": "string"
        },
        {
          "internalType": "string",
          "name": "unit",
          "type": "string"
        },
        {
          "internalType": "string",
          "name": "date",
          "type": "string"
        },
        {
          "internalType": "address",
          "name": "account",
          "type": "address"
        }
      ],
      "payable": false,
      "stateMutability": "view",
      "type": "function"
    },
    {
      "constant": true,
      "inputs": [],
      "name": "productCount",
      "outputs": [
        {
          "internalType": "uint256",
          "name": "",
          "type": "uint256"
        }
      ],
      "payable": false,
      "stateMutability": "view",
      "type": "function"
    },
    {
      "constant": true,
      "inputs": [
        {
          "internalType": "uint256",
          "name": "",
          "type": "uint256"
        }
      ],
      "name": "products",
      "outputs": [
        {
          "internalType": "uint256",
          "name": "id",
          "type": "uint256"
        },
        {
          "internalType": "string",
          "name": "name",
          "type": "string"
        },
        {
          "internalType": "string",
          "name": "image",
          "type": "string"
        },
        {
          "internalType": "string",
          "name": "company",
          "type": "string"
        },
        {
          "internalType": "string",
          "name": "date",
          "type": "string"
        },
        {
          "internalType": "address",
          "name": "account",
          "type": "address"
        }
      ],
      "payable": false,
      "stateMutability": "view",
      "type": "function"
    },
    {
      "constant": true,
      "inputs": [],
      "name": "shipmentCount",
      "outputs": [
        {
          "internalType": "uint256",
          "name": "",
          "type": "uint256"
        }
      ],
      "payable": false,
      "stateMutability": "view",
      "type": "function"
    },
    {
      "constant": true,
      "inputs": [
        {
          "internalType": "uint256",
          "name": "",
          "type": "uint256"
        }
      ],
      "name": "shipments",
      "outputs": [
        {
          "internalType": "uint256",
          "name": "id",
          "type": "uint256"
        },
        {
          "internalType": "string",
          "name": "shipType",
          "type": "string"
        },
        {
          "internalType": "string",
          "name": "place",
          "type": "string"
        },
        {
          "internalType": "string",
          "name": "latitude",
          "type": "string"
        },
        {
          "internalType": "string",
          "name": "longitude",
          "type": "string"
        },
        {
          "internalType": "string",
          "name": "date",
          "type": "string"
        },
        {
          "internalType": "address",
          "name": "account",
          "type": "address"
        }
      ],
      "payable": false,
      "stateMutability": "view",
      "type": "function"
    },
    {
      "constant": false,
      "inputs": [
        {
          "internalType": "string",
          "name": "_name",
          "type": "string"
        },
        {
          "internalType": "string",
          "name": "_image",
          "type": "string"
        },
        {
          "internalType": "string",
          "name": "_company",
          "type": "string"
        },
        {
          "internalType": "string",
          "name": "_date",
          "type": "string"
        }
      ],
      "name": "addProduct",
      "outputs": [],
      "payable": false,
      "stateMutability": "nonpayable",
      "type": "function"
    },
    {
      "constant": false,
      "inputs": [
        {
          "internalType": "string",
          "name": "_name",
          "type": "string"
        },
        {
          "internalType": "string",
          "name": "_quantity",
          "type": "string"
        },
        {
          "internalType": "string",
          "name": "_unit",
          "type": "string"
        },
        {
          "internalType": "string",
          "name": "_date",
          "type": "string"
        }
      ],
      "name": "addOrder",
      "outputs": [],
      "payable": false,
      "stateMutability": "nonpayable",
      "type": "function"
    },
    {
      "constant": false,
      "inputs": [
        {
          "internalType": "string",
          "name": "_name",
          "type": "string"
        },
        {
          "internalType": "string",
          "name": "_file",
          "type": "string"
        },
        {
          "internalType": "string",
          "name": "_date",
          "type": "string"
        }
      ],
      "name": "addCertificate",
      "outputs": [],
      "payable": false,
      "stateMutability": "nonpayable",
      "type": "function"
    },
    {
      "constant": false,
      "inputs": [
        {
          "internalType": "string",
          "name": "_shipType",
          "type": "string"
        },
        {
          "internalType": "string",
          "name": "_place",
          "type": "string"
        },
        {
          "internalType": "string",
          "name": "_latitude",
          "type": "string"
        },
        {
          "internalType": "string",
          "name": "_longitude",
          "type": "string"
        },
        {
          "internalType": "string",
          "name": "_date",
          "type": "string"
        }
      ],
      "name": "addShipment",
      "outputs": [],
      "payable": false,
      "stateMutability": "nonpayable",
      "type": "function"
    }
  ],
  "bytecode": "0x60806040526000805560006001556000600255600060035534801561002357600080fd5b50612e01806100336000396000f3fe608060405234801561001057600080fd5b50600436106100b45760003560e01c8063a85c38ef11610071578063a85c38ef14610a7b578063aace20b714610ca0578063ac9e576014610cbe578063b90c278114610ea7578063e0f6ef8714611127578063fde74e8114611145576100b4565b80632453ffa8146100b95780632ac08a93146100d757806350b09f331461036857806352d7b89c1461067f578063663b3e221461069d5780637acc0b2014610856575b600080fd5b6100c16113c5565b6040518082815260200191505060405180910390f35b610103600480360360208110156100ed57600080fd5b81019080803590602001909291905050506113cb565b6040518088815260200180602001806020018060200180602001806020018773ffffffffffffffffffffffffffffffffffffffff1673ffffffffffffffffffffffffffffffffffffffff16815260200186810386528c818151815260200191508051906020019080838360005b8381101561018b578082015181840152602081019050610170565b50505050905090810190601f1680156101b85780820380516001836020036101000a031916815260200191505b5086810385528b818151815260200191508051906020019080838360005b838110156101f15780820151818401526020810190506101d6565b50505050905090810190601f16801561021e5780820380516001836020036101000a031916815260200191505b5086810384528a818151815260200191508051906020019080838360005b8381101561025757808201518184015260208101905061023c565b50505050905090810190601f1680156102845780820380516001836020036101000a031916815260200191505b50868103835289818151815260200191508051906020019080838360005b838110156102bd5780820151818401526020810190506102a2565b50505050905090810190601f1680156102ea5780820380516001836020036101000a031916815260200191505b50868103825288818151815260200191508051906020019080838360005b83811015610323578082015181840152602081019050610308565b50505050905090810190601f1680156103505780820380516001836020036101000a031916815260200191505b509c5050505050505050505050505060405180910390f35b61067d600480360360a081101561037e57600080fd5b810190808035906020019064010000000081111561039b57600080fd5b8201836020820111156103ad57600080fd5b803590602001918460018302840111640100000000831117156103cf57600080fd5b91908080601f016020809104026020016040519081016040528093929190818152602001838380828437600081840152601f19601f8201169050808301925050505050505091929192908035906020019064010000000081111561043257600080fd5b82018360208201111561044457600080fd5b8035906020019184600183028401116401000000008311171561046657600080fd5b91908080601f016020809104026020016040519081016040528093929190818152602001838380828437600081840152601f19601f820116905080830192505050505050509192919290803590602001906401000000008111156104c957600080fd5b8201836020820111156104db57600080fd5b803590602001918460018302840111640100000000831117156104fd57600080fd5b91908080601f016020809104026020016040519081016040528093929190818152602001838380828437600081840152601f19601f8201169050808301925050505050505091929192908035906020019064010000000081111561056057600080fd5b82018360208201111561057257600080fd5b8035906020019184600183028401116401000000008311171561059457600080fd5b91908080601f016020809104026020016040519081016040528093929190818152602001838380828437600081840152601f19601f820116905080830192505050505050509192919290803590602001906401000000008111156105f757600080fd5b82018360208201111561060957600080fd5b8035906020019184600183028401116401000000008311171561062b57600080fd5b91908080601f016020809104026020016040519081016040528093929190818152602001838380828437600081840152601f19601f820116905080830192505050505050509192919290505050611725565b005b610687611b5c565b6040518082815260200191505060405180910390f35b6106c9600480360360208110156106b357600080fd5b8101908080359060200190929190505050611b62565b604051808681526020018060200180602001806020018573ffffffffffffffffffffffffffffffffffffffff1673ffffffffffffffffffffffffffffffffffffffff168152602001848103845288818151815260200191508051906020019080838360005b8381101561074957808201518184015260208101905061072e565b50505050905090810190601f1680156107765780820380516001836020036101000a031916815260200191505b50848103835287818151815260200191508051906020019080838360005b838110156107af578082015181840152602081019050610794565b50505050905090810190601f1680156107dc5780820380516001836020036101000a031916815260200191505b50848103825286818151815260200191508051906020019080838360005b838110156108155780820151818401526020810190506107fa565b50505050905090810190601f1680156108425780820380516001836020036101000a031916815260200191505b509850505050505050505060405180910390f35b6108826004803603602081101561086c57600080fd5b8101908080359060200190929190505050611d80565b60405180878152602001806020018060200180602001806020018673ffffffffffffffffffffffffffffffffffffffff1673ffffffffffffffffffffffffffffffffffffffff16815260200185810385528a818151815260200191508051906020019080838360005b838110156109065780820151818401526020810190506108eb565b50505050905090810190601f1680156109335780820380516001836020036101000a031916815260200191505b50858103845289818151815260200191508051906020019080838360005b8381101561096c578082015181840152602081019050610951565b50505050905090810190601f1680156109995780820380516001836020036101000a031916815260200191505b50858103835288818151815260200191508051906020019080838360005b838110156109d25780820151818401526020810190506109b7565b50505050905090810190601f1680156109ff5780820380516001836020036101000a031916815260200191505b50858103825287818151815260200191508051906020019080838360005b83811015610a38578082015181840152602081019050610a1d565b50505050905090810190601f168015610a655780820380516001836020036101000a031916815260200191505b509a505050505050505050505060405180910390f35b610aa760048036036020811015610a9157600080fd5b810190808035906020019092919050505061203c565b60405180878152602001806020018060200180602001806020018673ffffffffffffffffffffffffffffffffffffffff1673ffffffffffffffffffffffffffffffffffffffff16815260200185810385528a818151815260200191508051906020019080838360005b83811015610b2b578082015181840152602081019050610b10565b50505050905090810190601f168015610b585780820380516001836020036101000a031916815260200191505b50858103845289818151815260200191508051906020019080838360005b83811015610b91578082015181840152602081019050610b76565b50505050905090810190601f168015610bbe5780820380516001836020036101000a031916815260200191505b50858103835288818151815260200191508051906020019080838360005b83811015610bf7578082015181840152602081019050610bdc565b50505050905090810190601f168015610c245780820380516001836020036101000a031916815260200191505b50858103825287818151815260200191508051906020019080838360005b83811015610c5d578082015181840152602081019050610c42565b50505050905090810190601f168015610c8a5780820380516001836020036101000a031916815260200191505b509a505050505050505050505060405180910390f35b610ca86122f8565b6040518082815260200191505060405180910390f35b610ea560048036036060811015610cd457600080fd5b8101908080359060200190640100000000811115610cf157600080fd5b820183602082011115610d0357600080fd5b80359060200191846001830284011164010000000083111715610d2557600080fd5b91908080601f016020809104026020016040519081016040528093929190818152602001838380828437600081840152601f19601f82011690508083019250505050505050919291929080359060200190640100000000811115610d8857600080fd5b820183602082011115610d9a57600080fd5b80359060200191846001830284011164010000000083111715610dbc57600080fd5b91908080601f016020809104026020016040519081016040528093929190818152602001838380828437600081840152601f19601f82011690508083019250505050505050919291929080359060200190640100000000811115610e1f57600080fd5b820183602082011115610e3157600080fd5b80359060200191846001830284011164010000000083111715610e5357600080fd5b91908080601f016020809104026020016040519081016040528093929190818152602001838380828437600081840152601f19601f8201169050808301925050505050505091929192905050506122fe565b005b61112560048036036080811015610ebd57600080fd5b8101908080359060200190640100000000811115610eda57600080fd5b820183602082011115610eec57600080fd5b80359060200191846001830284011164010000000083111715610f0e57600080fd5b91908080601f016020809104026020016040519081016040528093929190818152602001838380828437600081840152601f19601f82011690508083019250505050505050919291929080359060200190640100000000811115610f7157600080fd5b820183602082011115610f8357600080fd5b80359060200191846001830284011164010000000083111715610fa557600080fd5b91908080601f016020809104026020016040519081016040528093929190818152602001838380828437600081840152601f19601f8201169050808301925050505050505091929192908035906020019064010000000081111561100857600080fd5b82018360208201111561101a57600080fd5b8035906020019184600183028401116401000000008311171561103c57600080fd5b91908080601f016020809104026020016040519081016040528093929190818152602001838380828437600081840152601f19601f8201169050808301925050505050505091929192908035906020019064010000000081111561109f57600080fd5b8201836020820111156110b157600080fd5b803590602001918460018302840111640100000000831117156110d357600080fd5b91908080601f016020809104026020016040519081016040528093929190818152602001838380828437600081840152601f19601f8201169050808301925050505050505091929192905050506125f5565b005b61112f61298c565b6040518082815260200191505060405180910390f35b6113c36004803603608081101561115b57600080fd5b810190808035906020019064010000000081111561117857600080fd5b82018360208201111561118a57600080fd5b803590602001918460018302840111640100000000831117156111ac57600080fd5b91908080601f016020809104026020016040519081016040528093929190818152602001838380828437600081840152601f19601f8201169050808301925050505050505091929192908035906020019064010000000081111561120f57600080fd5b82018360208201111561122157600080fd5b8035906020019184600183028401116401000000008311171561124357600080fd5b91908080601f016020809104026020016040519081016040528093929190818152602001838380828437600081840152601f19601f820116905080830192505050505050509192919290803590602001906401000000008111156112a657600080fd5b8201836020820111156112b857600080fd5b803590602001918460018302840111640100000000831117156112da57600080fd5b91908080601f016020809104026020016040519081016040528093929190818152602001838380828437600081840152601f19601f8201169050808301925050505050505091929192908035906020019064010000000081111561133d57600080fd5b82018360208201111561134f57600080fd5b8035906020019184600183028401116401000000008311171561137157600080fd5b91908080601f016020809104026020016040519081016040528093929190818152602001838380828437600081840152601f19601f820116905080830192505050505050509192919290505050612992565b005b60015481565b6007602052806000526040600020600091509050806000015490806001018054600181600116156101000203166002900480601f01602080910402602001604051908101604052809291908181526020018280546001816001161561010002031660029004801561147d5780601f106114525761010080835404028352916020019161147d565b820191906000526020600020905b81548152906001019060200180831161146057829003601f168201915b505050505090806002018054600181600116156101000203166002900480601f01602080910402602001604051908101604052809291908181526020018280546001816001161561010002031660029004801561151b5780601f106114f05761010080835404028352916020019161151b565b820191906000526020600020905b8154815290600101906020018083116114fe57829003601f168201915b505050505090806003018054600181600116156101000203166002900480601f0160208091040260200160405190810160405280929190818152602001828054600181600116156101000203166002900480156115b95780601f1061158e576101008083540402835291602001916115b9565b820191906000526020600020905b81548152906001019060200180831161159c57829003601f168201915b505050505090806004018054600181600116156101000203166002900480601f0160208091040260200160405190810160405280929190818152602001828054600181600116156101000203166002900480156116575780601f1061162c57610100808354040283529160200191611657565b820191906000526020600020905b81548152906001019060200180831161163a57829003601f168201915b505050505090806005018054600181600116156101000203166002900480601f0160208091040260200160405190810160405280929190818152602001828054600181600116156101000203166002900480156116f55780601f106116ca576101008083540402835291602001916116f5565b820191906000526020600020905b8154815290600101906020018083116116d857829003601f168201915b5050505050908060060160009054906101000a900473ffffffffffffffffffffffffffffffffffffffff16905087565b60008551141561173457600080fd5b60008451141561174357600080fd5b60008351141561175257600080fd5b60008251141561176157600080fd5b60008151141561177057600080fd5b6003600081548092919060010191905055506040518060e0016040528060035481526020018681526020018581526020018481526020018381526020018281526020013373ffffffffffffffffffffffffffffffffffffffff16815250600760006003548152602001908152602001600020600082015181600001556020820151816001019080519060200190611808929190612d27565b506040820151816002019080519060200190611825929190612d27565b506060820151816003019080519060200190611842929190612d27565b50608082015181600401908051906020019061185f929190612d27565b5060a082015181600501908051906020019061187c929190612d27565b5060c08201518160060160006101000a81548173ffffffffffffffffffffffffffffffffffffffff021916908373ffffffffffffffffffffffffffffffffffffffff1602179055509050507f6962cf86ecd3dafd553d5566d99352fc3d4ca932105e0ba573a19ad294f880d16003548686868686336040518088815260200180602001806020018060200180602001806020018773ffffffffffffffffffffffffffffffffffffffff1673ffffffffffffffffffffffffffffffffffffffff16815260200186810386528c818151815260200191508051906020019080838360005b8381101561197957808201518184015260208101905061195e565b50505050905090810190601f1680156119a65780820380516001836020036101000a031916815260200191505b5086810385528b818151815260200191508051906020019080838360005b838110156119df5780820151818401526020810190506119c4565b50505050905090810190601f168015611a0c5780820380516001836020036101000a031916815260200191505b5086810384528a818151815260200191508051906020019080838360005b83811015611a45578082015181840152602081019050611a2a565b50505050905090810190601f168015611a725780820380516001836020036101000a031916815260200191505b50868103835289818151815260200191508051906020019080838360005b83811015611aab578082015181840152602081019050611a90565b50505050905090810190601f168015611ad85780820380516001836020036101000a031916815260200191505b50868103825288818151815260200191508051906020019080838360005b83811015611b11578082015181840152602081019050611af6565b50505050905090810190601f168015611b3e5780820380516001836020036101000a031916815260200191505b509c5050505050505050505050505060405180910390a15050505050565b60025481565b6006602052806000526040600020600091509050806000015490806001018054600181600116156101000203166002900480601f016020809104026020016040519081016040528092919081815260200182805460018160011615610100020316600290048015611c145780601f10611be957610100808354040283529160200191611c14565b820191906000526020600020905b815481529060010190602001808311611bf757829003601f168201915b505050505090806002018054600181600116156101000203166002900480601f016020809104026020016040519081016040528092919081815260200182805460018160011615610100020316600290048015611cb25780601f10611c8757610100808354040283529160200191611cb2565b820191906000526020600020905b815481529060010190602001808311611c9557829003601f168201915b505050505090806003018054600181600116156101000203166002900480601f016020809104026020016040519081016040528092919081815260200182805460018160011615610100020316600290048015611d505780601f10611d2557610100808354040283529160200191611d50565b820191906000526020600020905b815481529060010190602001808311611d3357829003601f168201915b5050505050908060040160009054906101000a900473ffffffffffffffffffffffffffffffffffffffff16905085565b6004602052806000526040600020600091509050806000015490806001018054600181600116156101000203166002900480601f016020809104026020016040519081016040528092919081815260200182805460018160011615610100020316600290048015611e325780601f10611e0757610100808354040283529160200191611e32565b820191906000526020600020905b815481529060010190602001808311611e1557829003601f168201915b505050505090806002018054600181600116156101000203166002900480601f016020809104026020016040519081016040528092919081815260200182805460018160011615610100020316600290048015611ed05780601f10611ea557610100808354040283529160200191611ed0565b820191906000526020600020905b815481529060010190602001808311611eb357829003601f168201915b505050505090806003018054600181600116156101000203166002900480601f016020809104026020016040519081016040528092919081815260200182805460018160011615610100020316600290048015611f6e5780601f10611f4357610100808354040283529160200191611f6e565b820191906000526020600020905b815481529060010190602001808311611f5157829003601f168201915b505050505090806004018054600181600116156101000203166002900480601f01602080910402602001604051908101604052809291908181526020018280546001816001161561010002031660029004801561200c5780601f10611fe15761010080835404028352916020019161200c565b820191906000526020600020905b815481529060010190602001808311611fef57829003601f168201915b5050505050908060050160009054906101000a900473ffffffffffffffffffffffffffffffffffffffff16905086565b6005602052806000526040600020600091509050806000015490806001018054600181600116156101000203166002900480601f0160208091040260200160405190810160405280929190818152602001828054600181600116156101000203166002900480156120ee5780601f106120c3576101008083540402835291602001916120ee565b820191906000526020600020905b8154815290600101906020018083116120d157829003601f168201915b505050505090806002018054600181600116156101000203166002900480601f01602080910402602001604051908101604052809291908181526020018280546001816001161561010002031660029004801561218c5780601f106121615761010080835404028352916020019161218c565b820191906000526020600020905b81548152906001019060200180831161216f57829003601f168201915b505050505090806003018054600181600116156101000203166002900480601f01602080910402602001604051908101604052809291908181526020018280546001816001161561010002031660029004801561222a5780601f106121ff5761010080835404028352916020019161222a565b820191906000526020600020905b81548152906001019060200180831161220d57829003601f168201915b505050505090806004018054600181600116156101000203166002900480601f0160208091040260200160405190810160405280929190818152602001828054600181600116156101000203166002900480156122c85780601f1061229d576101008083540402835291602001916122c8565b820191906000526020600020905b8154815290600101906020018083116122ab57829003601f168201915b5050505050908060050160009054906101000a900473ffffffffffffffffffffffffffffffffffffffff16905086565b60035481565b60008351141561230d57600080fd5b60008251141561231c57600080fd5b60008151141561232b57600080fd5b6002600081548092919060010191905055506040518060a0016040528060025481526020018481526020018381526020018281526020013373ffffffffffffffffffffffffffffffffffffffff168152506006600060025481526020019081526020016000206000820151816000015560208201518160010190805190602001906123b7929190612d27565b5060408201518160020190805190602001906123d4929190612d27565b5060608201518160030190805190602001906123f1929190612d27565b5060808201518160040160006101000a81548173ffffffffffffffffffffffffffffffffffffffff021916908373ffffffffffffffffffffffffffffffffffffffff1602179055509050507fc894a1344748a8c9184810582a3fcb6285e8eb16b851eee04d2d682367c69d9a60025484848433604051808681526020018060200180602001806020018573ffffffffffffffffffffffffffffffffffffffff1673ffffffffffffffffffffffffffffffffffffffff168152602001848103845288818151815260200191508051906020019080838360005b838110156124e45780820151818401526020810190506124c9565b50505050905090810190601f1680156125115780820380516001836020036101000a031916815260200191505b50848103835287818151815260200191508051906020019080838360005b8381101561254a57808201518184015260208101905061252f565b50505050905090810190601f1680156125775780820380516001836020036101000a031916815260200191505b50848103825286818151815260200191508051906020019080838360005b838110156125b0578082015181840152602081019050612595565b50505050905090810190601f1680156125dd5780820380516001836020036101000a031916815260200191505b509850505050505050505060405180910390a1505050565b60008451141561260457600080fd5b60008351141561261357600080fd5b60008251141561262257600080fd5b60008151141561263157600080fd5b6001600081548092919060010191905055506040518060c0016040528060015481526020018581526020018481526020018381526020018281526020013373ffffffffffffffffffffffffffffffffffffffff168152506005600060015481526020019081526020016000206000820151816000015560208201518160010190805190602001906126c3929190612d27565b5060408201518160020190805190602001906126e0929190612d27565b5060608201518160030190805190602001906126fd929190612d27565b50608082015181600401908051906020019061271a929190612d27565b5060a08201518160050160006101000a81548173ffffffffffffffffffffffffffffffffffffffff021916908373ffffffffffffffffffffffffffffffffffffffff1602179055509050507f8c5d0faaeb77d9eccf748ec43df65caf6bb655a39ec2c4e07985014f0c4e8f37600154858585853360405180878152602001806020018060200180602001806020018673ffffffffffffffffffffffffffffffffffffffff1673ffffffffffffffffffffffffffffffffffffffff16815260200185810385528a818151815260200191508051906020019080838360005b838110156128125780820151818401526020810190506127f7565b50505050905090810190601f16801561283f5780820380516001836020036101000a031916815260200191505b50858103845289818151815260200191508051906020019080838360005b8381101561287857808201518184015260208101905061285d565b50505050905090810190601f1680156128a55780820380516001836020036101000a031916815260200191505b50858103835288818151815260200191508051906020019080838360005b838110156128de5780820151818401526020810190506128c3565b50505050905090810190601f16801561290b5780820380516001836020036101000a031916815260200191505b50858103825287818151815260200191508051906020019080838360005b83811015612944578082015181840152602081019050612929565b50505050905090810190601f1680156129715780820380516001836020036101000a031916815260200191505b509a505050505050505050505060405180910390a150505050565b60005481565b6000845114156129a157600080fd5b6000835114156129b057600080fd5b6000825114156129bf57600080fd5b6000815114156129ce57600080fd5b60008081548092919060010191905055506040518060c0016040528060005481526020018581526020018481526020018381526020018281526020013373ffffffffffffffffffffffffffffffffffffffff168152506004600080548152602001908152602001600020600082015181600001556020820151816001019080519060200190612a5e929190612d27565b506040820151816002019080519060200190612a7b929190612d27565b506060820151816003019080519060200190612a98929190612d27565b506080820151816004019080519060200190612ab5929190612d27565b5060a08201518160050160006101000a81548173ffffffffffffffffffffffffffffffffffffffff021916908373ffffffffffffffffffffffffffffffffffffffff1602179055509050507fb04cc8e999bdc869160fde48064136d011f19755d97437ac23d3abfa35aafa98600054858585853360405180878152602001806020018060200180602001806020018673ffffffffffffffffffffffffffffffffffffffff1673ffffffffffffffffffffffffffffffffffffffff16815260200185810385528a818151815260200191508051906020019080838360005b83811015612bad578082015181840152602081019050612b92565b50505050905090810190601f168015612bda5780820380516001836020036101000a031916815260200191505b50858103845289818151815260200191508051906020019080838360005b83811015612c13578082015181840152602081019050612bf8565b50505050905090810190601f168015612c405780820380516001836020036101000a031916815260200191505b50858103835288818151815260200191508051906020019080838360005b83811015612c79578082015181840152602081019050612c5e565b50505050905090810190601f168015612ca65780820380516001836020036101000a031916815260200191505b50858103825287818151815260200191508051906020019080838360005b83811015612cdf578082015181840152602081019050612cc4565b50505050905090810190601f168015612d0c5780820380516001836020036101000a031916815260200191505b509a505050505050505050505060405180910390a150505050565b828054600181600116156101000203166002900490600052602060002090601f016020900481019282601f10612d6857805160ff1916838001178555612d96565b82800160010185558215612d96579182015b82811115612d95578251825591602001919060010190612d7a565b5b509050612da39190612da7565b5090565b612dc991905b80821115612dc5576000816000905550600101612dad565b5090565b9056fea265627a7a723158205f86546f1cf108ef2ab181e96c7aaffb2984e3263f78cfa6caf1684dcb27563164736f6c63430005100032",
  "source": "pragma solidity >=0.4.22 <0.9.0;\r\n\r\ncontract Origin {\r\n\r\n    uint public productCount = 0;\r\n    uint public orderCount = 0;\r\n    uint public certificateCount = 0;\r\n    uint public shipmentCount = 0;\r\n\r\n    mapping (uint => Product) public products; \r\n    mapping (uint => Order) public orders; \r\n    mapping (uint => Certificate) public certificates; \r\n    mapping (uint => Shipment) public shipments; \r\n    //put on the blockchain when inserted into the mapping\r\n\r\n    struct Product {\r\n        uint id;\r\n        string name;\r\n        string image;\r\n        string company;\r\n        string date;\r\n        address account;\r\n    }\r\n\r\n    event ProductAdded(\r\n        uint id,\r\n        string name,\r\n        string image,\r\n        string company,\r\n        string date,\r\n        address account\r\n    );\r\n   \r\n    function addProduct(string memory _name, string memory _image, string memory _company, string memory _date) public {\r\n        //Require name and company\r\n        require(bytes(_name).length != 0);\r\n        require(bytes(_image).length != 0);\r\n        require(bytes(_company).length != 0);\r\n        require(bytes(_date).length != 0);\r\n        //Make sure parameters are correct\r\n        //Increment product count\r\n        productCount++;\r\n        // Add the product\r\n        products[productCount] = Product(productCount, _name,_image, _company, _date, msg.sender);\r\n        //Trigger an event\r\n        emit ProductAdded(productCount, _name, _image, _company, _date, msg.sender);\r\n        // }\r\n    }\r\n\r\n//     function deleteProduct(uint _productId) public returns(bool success) {\r\n//         require(productCount > 0);\r\n//         for(uint256 i =0; i< productCount; i++){\r\n//            if(products[i].id == _productId){\r\n//               products[i] = products[productCount-1];} // pushing last into current arrray index which we gonna delete\r\n//               delete products[productCount-1]; // now deleteing last index\r\n//               productCount--; //total count decrease\r\n//               //emit event\r\n//               return true;\r\n//            }\r\n//        return false;\r\n//    }\r\n\r\n    struct Order {\r\n        uint id;\r\n        string name;\r\n        string quantity;\r\n        string unit;\r\n        string date;\r\n        address account;\r\n    }\r\n\r\n    event OrderAdded(\r\n        uint id,\r\n        string name,\r\n        string quantity,\r\n        string unit,\r\n        string date,\r\n        address account\r\n    );\r\n   \r\n    function addOrder(string memory _name, string memory _quantity, string memory _unit, string memory _date) public {\r\n        //Require name and company\r\n        require(bytes(_name).length != 0);\r\n        require(bytes(_quantity).length != 0);\r\n        require(bytes(_unit).length != 0);\r\n        require(bytes(_date).length != 0);\r\n        // require(bytes(msg.sender).length != 0);\r\n        //Make sure parameters are correct\r\n        //Increment product count\r\n        orderCount++;\r\n        // Add the order\r\n        orders[orderCount] = Order(orderCount, _name, _quantity, _unit, _date, msg.sender);\r\n        //Trigger an event\r\n        emit OrderAdded(orderCount, _name, _quantity, _unit, _date, msg.sender);\r\n        // }\r\n    }   \r\n \r\n    struct Certificate {\r\n        uint id;\r\n        string name;\r\n        string file;\r\n        string date;\r\n        address account;\r\n    }\r\n\r\n    event CertificateAdded(\r\n        uint id,\r\n        string name,\r\n        string file,\r\n        string date,\r\n        address account\r\n    );\r\n   \r\n    function addCertificate(string memory _name, string memory _file, string memory _date) public {\r\n        require(bytes(_name).length != 0);\r\n        require(bytes(_file).length != 0);\r\n        require(bytes(_date).length != 0);\r\n        certificateCount++;\r\n        certificates[certificateCount] = Certificate(certificateCount, _name, _file, _date, msg.sender);\r\n        emit CertificateAdded(certificateCount, _name, _file, _date, msg.sender);\r\n        // }\r\n    }   \r\n\r\n    struct Shipment {\r\n        uint id;\r\n        string shipType;\r\n        string place;\r\n        string latitude;\r\n        string longitude;\r\n        string date;\r\n        address account;\r\n    }\r\n\r\n    event ShipmentAdded(\r\n        uint id,\r\n        string shipType,\r\n        string place,\r\n        string latitude,\r\n        string longitude,\r\n        string date,\r\n        address account\r\n    );\r\n   \r\n    function addShipment(string memory _shipType, string memory _place,  string memory _latitude, string memory _longitude, string memory _date) public {\r\n        require(bytes(_shipType).length != 0);\r\n        require(bytes(_place).length != 0);\r\n        require(bytes(_latitude).length != 0);\r\n        require(bytes(_longitude).length != 0);\r\n        require(bytes(_date).length != 0);\r\n        shipmentCount++;\r\n        shipments[shipmentCount] = Shipment(shipmentCount, _shipType, _place, _latitude, _longitude, _date, msg.sender);\r\n        emit ShipmentAdded(shipmentCount, _shipType, _place, _latitude, _longitude, _date, msg.sender);\r\n        // }\r\n    }   \r\n    \r\n}",
  "sourcePath": "C:/Users/Okay/Desktop/dapp start/contracts/Origin.sol",
  "compiler": {
    "name": "solc",
    "version": "0.5.16+commit.9c3226ce.Emscripten.clang"
  },
  "schemaVersion": "3.4.1",
  "updatedAt": "2022-03-16T14:47:45.434Z",
  "networkType": "ethereum",
  "devdoc": {
    "methods": {}
  },
  "userdoc": {
    "methods": {}
  }
}